:020000040800F2
:1000000000550324C102000891570008394A00082E
:100010006D56000853040008F57000080000000049
:10002000000000000000000000000000855B0008E8
:10003000CD070008000000006D580008815C000832
:10004000DB020008DB020008DB020008DB0200081C
:10005000DB020008DB020008DB020008DB0200080C
:10006000DB020008DB020008DB0200087504000860
:1000700091040008A1040008B1040008C1040008AC
:10008000D1040008E1040008DB020008DB020008DC
:10009000DB020008DB020008DB020008DB020008CC
:1000A000DB020008DB020008DB020008DB020008BC
:1000B000DB020008215D0008DB020008DB0200080B
:1000C000DB020008DB020008DB020008DB0200089C
:1000D000DB0200082D6E0008E96E0008A56F00081D
:1000E000DB020008DB02000800000000DB02000861
:1000F000DB020008DB020008DB020008F104000854
:10010000DB020008DB020008DB020008DB0200085B
:10011000295E0008D15E0008DB020008DB0200084F
:100120000105000811050008210500083105000837
:10013000410500087D080008DB020008DB0200081A
:1001400000000000000000000000000000000000AF
:1001500051050008DB020008DB0200084D700008B2
:10016000DB020008DB020008DB020008DB020008FB
:10017000DB020008DB020008DB02000800000000D0
:10018000DB020008DB020008A95F0008DB020008B0
:10019000DB020008DB020008DB020008DB020008CB
:1001A000DB020008DB020008DB020008DB020008BB
:1001B000DB020008DB020008DB020008DB020008AB
:1001C000DB020008DB020008DB020008DB0200089B
:1001D000DB020008DB020008DB020008DB0200088B
:1001E000DB020008DB020008DB020008DB0200087B
:1001F000DB020008DB020008DB020008DB0200086B
:10020000DB020008DB020008DB020008DB0200085A
:10021000DB020008DB020008DB020008DB0200084A
:10022000DB020008DB020008DB020008000000001F
:10023000DB020008DB02000800000000DB0200080F
:10024000DB020008DB020008DB020008DB0200081A
:10025000DB020008DB020008DB020008DB0200080A
:10026000DB020008DB020008DB020008DB020008FA
:10027000DB020008DB020008DB02000800000000CF
:10028000DB02000800000000DB02000800000000A4
:1002900000000000DB020008DFF810D000F0AAF830
:1002A00000480047D9900008AFF3008000550324B0
:1002B00030BF72B6704762B6704780F308887047E7
:1002C0000648804706480047FEE7FEE7FEE7FEE7F0
:1002D000FEE7FEE7FEE7FEE7FEE7FEE78D5C0008CF
:1002E000990200082DE9F05F0546002092469B46E2
:1002F00088460646814640241BE02846414647463C
:10030000224600F067F853465A46C01A914110D36E
:1003100011461846224600F04EF82D1A67EB0108E8
:100320004F4622460120002100F045F817EB000956
:100330004E41201EA4F10104DFDC484631462A4626
:100340004346BDE8F09F40EA01039B0703D009E064
:1003500008C9121F08C0042AFAD203E011F8013BB1
:1003600000F8013B521EF9D27047D2B201E000F80A
:10037000012B491EFBD270470022F6E710B5134649
:100380000A4604461946FFF7F0FF204610BD421CFE
:1003900010F8011B0029FBD1801A704730B50446C4
:1003A0000020034600E05B1C934203D2E05CCD5C7E
:1003B000401BF8D030BD202A04DB203A00FA02F1BD
:1003C000002070479140C2F1200320FA03F3194343
:1003D00090407047202A04DB203A21FA02F00021E5
:1003E000704721FA02F3D040C2F120029140084345
:1003F00019467047064C074D06E0E06840F00103DF
:1004000094E8070098471034AC42F6D3FFF748FF52
:1004100088D20008A8D2000830B58C1810F8012B3B
:1004200012F00F0301D110F8013B120906D110F8A8
:10043000012B03E010F8015B01F8015B5B1EF9D1B1
:1004400001E001F8013B521EFBD1A142E6D300209E
:1004500030BD00BFFEE7000010B505F095FA05F0CD
:1004600045FA0348006840F004000149086010BDE7
:100470009CEF00E010B5044800F078FF03480068E6
:10048000401C0249086010BDA01200240400002492
:1004900010B5024800F06AFF10BD000018130024D8
:1004A00010B5024800F062FF10BD00009013002458
:1004B00010B5024800F05AFF10BD000008140024D7
:1004C00010B5024800F052FF10BD00008014002457
:1004D00010B5024800F04AFF10BD0000F8140024D7
:1004E00010B5024800F042FF10BD00007015002456
:1004F00010B5024800F03AFF10BD0000E8150024D6
:1005000010B5024800F032FF10BD0000D00F0024EB
:1005100010B5024800F02AFF10BD0000481000246A
:1005200010B5024800F022FF10BD0000C0100024EA
:1005300010B5024800F01AFF10BD00003811002469
:1005400010B5024800F012FF10BD0000B0110024E9
:1005500010B5024800F00AFF10BD00002812002468
:100560000146087810381823B0FBF3F20848805C85
:10057000C865032A05D908686FF30900001D88655E
:1005800003E008686FF309008865886D7047000014
:10059000CCD0000810B500210268174B9A4213D83E
:1005A000154B8C3B9A420FD30378083B1424B3FBC2
:1005B000F4F1124B03EB81030366104B8033436667
:1005C00001238B40836616E00378103B1824B3FBAD
:1005D000F4F10B4B9A4204D8094BA83B9A4200D342
:1005E0000831084B03EB81030366064B80334366F7
:1005F00001238B40836610BD945402580058025862
:10060000B80402400008024010B502680179E9B15F
:1006100008291BD80E4B9A420CD80D4B8C3B9A42A2
:1006200008D34B1E0B4C04EB8303C366094B4033CA
:10063000036707E04B1E084C04EB8303C366064BBD
:10064000403303674B1E01249C40446710BD0000EB
:1006500094540258005902580009024001460020F3
:100660008A69D2B98A6A32B1012A0DD0022A03D02E
:10067000032A10D10EE000BFCA6A02F08072B2F104
:10068000807F00D1012007E0CA6AB2F1C07F00D1AB
:10069000012001E000E000BF36E08A69B2F5005FAA
:1006A0001BD18A6A32B1012A07D0022A03D0032A59
:1006B00011D10AE000BF01200EE0CA6A02F0807288
:1006C000B2F1807F00D1012006E0CA6AB2F1C07F9A
:1006D00000D1012000E000BF16E08A6A32B1012A91
:1006E00005D0022A04D0032A0CD103E000BF00BFCA
:1006F000012008E0CA6A02F08072B2F1807F00D166
:10070000012000E000BF00BF70470000F0B5846D1D
:10071000456E6D68866E3543466E7560C56E2DB14B
:10072000056F6D68466F3543066F7560244E05682A
:10073000B54205D3234E0568B54201D8012500E036
:100740000025CDB190F85C603F25B540A5600568F7
:100750002D6825F480250668356005686B6085681E
:10076000402D04D10568AA600568E96026E00568A7
:10077000A9600568EA6021E0134E0568B5421DD303
:10078000114E8C360568B54218D80F4D2D1F2D68B7
:1007900090F85C700126BE4035430B4E361F356025
:1007A00005686B608568402D04D10568AA600568FE
:1007B000E96003E00568A9600568EA60F0BD000033
:1007C00010000240B804024008540258704710B5A7
:1007D000002210E002EB4204036903EBC401002392
:1007E0000B604B608B60CB600B614B6100F12C03A5
:1007F00043F82210521C042AECD30024C46304647E
:100800004464C46484640324036803F58053C3F818
:100810003041036803F580530469C3F81C41036841
:1008200003F58053C3F8281110BD10B500220EE067
:1008300002EB4204C36803EBC40100230B604B606E
:100840008B60CB6000F1180343F82210521C042A7D
:10085000EED3002484620324036803F58053C3F8B5
:100860002C41036803F58053C468C3F8144103683E
:1008700003F58053C468C3F8204110BD10B508F0DB
:10088000F3FB4FF400410A48006800F58050C0F8BF
:10089000601140210648006800F58050C0F86011E2
:1008A00001210348006800F58050C0F8601110BDB8
:1008B0006016002410B5A2B0044601208DF8330064
:1008C000002012908DF841008DF8430001208DF832
:1008D00028008DF856008DF8320000208DF84C006D
:1008E00001208DF8840040030F9000208DF85C00FB
:1008F00018908DF885008DF886004FF4C36016902F
:1009000000208DF830000B9001208DF8350000207C
:100910008DF836008DF840001D901B9014908DF8D6
:1009200064008DF87A0001208DF84200202020908C
:1009300001208DF8440000208DF855004FF0405004
:1009400009904FF480400E9000208DF83100022075
:100950001F9000208DF878008DF879008DF85400F4
:1009600001208DF8340000201A9001208DF87000CD
:1009700009A9204600F05EFA01208DF804000290DB
:10098000002000908DF81C008DF80D008DF80C00F3
:100990004FF40010069000208DF814004FF4001062
:1009A000049000208DF81D004FF4067008906946F1
:1009B000204600F0DFF922B010BD000070B50646F9
:1009C000002400253068D0F8004224F4706402F05E
:1009D0006FFB05461348854205D31348854202D272
:1009E00044F400741AE01048854205D30F4885424C
:1009F00002D244F4407411E00C48854203D30C4801
:100A0000854200D20AE00A48854205D3094885425A
:100A100002D244F4807401E044F480643068C0F889
:100A2000004270BD002D3101C00E160200879303F5
:100A300000E1F50580D1F0082DE9F04706460B46A8
:100A4000904606F118052A69D5F810C00027B94666
:100A500055F822109C68C86800F00040B0F1004FC3
:100A600002D10220BDE8F087187800F00400C8B376
:100A7000C8686FF30F00D3F824A040EA0A00C860EA
:100A8000C86840F48030C8603068006E40F4801060
:100A9000D6F800A0CAF86000187800F0080008B383
:100AA000B3F82CA088686AF31F408860C86840F4D7
:100AB0000030C860C86820F44020D3F830A040EA75
:100AC0000A00C8603068406E40F48010D6F800A07C
:100AD000CAF864003068006D40F08060D6F800A06D
:100AE000CAF85000187800F0100058B188686FF309
:100AF0000D00D3F818A040EA0A008860C86840F0EA
:100B00008060C860187800F0040018B9187800F008
:100B10001000F0B1C86840F08040C860C86840F07C
:100B20000040C86000BF521C042A00D3121F00BF3F
:100B300055F822107F1CC86800F00040B0F1004F4B
:100B400007D155F82C10C86820F00040C86002207A
:100B500088E77F1C2068086088686FF30D00D4F870
:100B600004A040EA0A008860A06868B1A468206810
:100B700048608868DFF8F8A100EA0A00B4F804A029
:100B800040EA0A40886007E0002048608868DFF893
:100B9000E0A100EA0A008860187800F01000A0B117
:100BA000C86820F4F000B3F820A040EACA40C8604A
:100BB000C8686FF31100D3F81CA040EA0A00C860AF
:100BC000C86840F48020C8601FE0C8686FF30E005A
:100BD000D3F804A040EA0A00C860187800F00100C9
:100BE00038B1C86820F44030D3F814A040EA0A00B5
:100BF000C860187800F0200038B1C86820F0406064
:100C0000D3F810A040EA0A00C860187800F0040089
:100C100038B1886820F44040D3F828A040EA0A00A0
:100C20008860C86840F00050C860C86820F0804004
:100C3000C860C86840F00040C860187800F0020042
:100C400038B1C86820F06070D3F80CA040EA0A0000
:100C5000C86076E000BF521C042A00D3121F00BFF8
:100C600055F82210C86800F00040B0F1004F17D1CD
:100C7000624655F822104FF000090DE0C86820F0D8
:100C80000040C86000BF521C042A00D3121F00BFDE
:100C900055F8221009F10109B945EFD30220E1E628
:100CA0007F1CA4682068086088686FF30D00D4F882
:100CB00004A040EA0A008860A06868B1A4682068BF
:100CC00048608868DFF8A8A000EA0A00B4F804A029
:100CD00040EA0A40886007E0002048608868DFF842
:100CE00090A000EA0A008860187800F0100060B157
:100CF000C8686FF31100D3F81CA040EA0A00C8606E
:100D0000C86840F48020C86013E0C8686FF30E0024
:100D1000D3F804A040EA0A00C860187800F0010087
:100D200038B1C86820F44030D3F814A040EA0A0073
:100D3000C860C86840F00040C860C86820F08040C3
:100D4000C860A068002885D1B8F1000F04D0886879
:100D500040F00040886003E0886820F00040886030
:100D6000C86840F08050C8602A6100207AE6000020
:100D7000FFFF00C010B50022036803F580531B6815
:100D800047F60204A3430C682343046804F5805427
:100D900023600C798B6843EA04330C7B43EAC4324A
:100DA000036803F580535B684DF20104A3431343CA
:100DB000046804F5805463604C7B0B6A43EA044288
:100DC000036803F58053D3F80031174C23401343D5
:100DD000046804F58054C4F800310C7D0B6943EAC3
:100DE00004134C7F43EA0432036803F58053D3F8BD
:100DF00004310E4C23401343046804F58054C4F8B6
:100E000004310C7F8B6943EAC472036803F5805395
:100E1000D3F80831064C23401343046804F580548A
:100E2000C4F8083110BD000000C0FEFFEFEFC0FFA6
:100E3000FFFFC07F10B500220C688B6823430C793C
:100E400043EAC4630C7B43EAC4534C7B43EA8453B8
:100E50008C7B43EA4453CC7B43EA04530C7C0CB9AF
:100E6000012400E0002443EAC4434C7C0CB9012473
:100E700000E0002443EA44438C7C43EA04434C6989
:100E800023438C6923430C7F43EA04334C7F43EABA
:100E9000C4238C7F0CB9012400E0002443EA84239E
:100EA000CC7F43EA442391F820400CB9012400E0B0
:100EB000002443EA042351F8244F23430C7943EAE6
:100EC00004138C6843EA040203681B683C4C23400B
:100ED0001343046823600B7E5B060C7D43EA0463C6
:100EE0000C7B43EA84434C7B43EA44438C7B2439A8
:100EF0000CB9012400E0002443EA04434C6B43EAAC
:100F0000040203685B682F4C23401343046863604A
:100F100091F840404B6C43EA04220368DB6840F2DE
:100F20000F14A34313430468E36091F854400B6D1E
:100F300043EA440391F84C400CB9012400E000243A
:100F400043EAC41331F8484F43EA044203681B6F75
:100F50004FF60D7423401343046823678B7B4C7B4F
:100F600043EA44020368D3F8903023F003031343A9
:100F70000468C4F890300368D3F8003D23F072038E
:100F80000C6923430468C4F8003D0C7E4B69483962
:100F90000CB9012400E0002443EA841391F8614075
:100FA00043EA041391F8624043EAC4020368D3F8A9
:100FB000303D23F07B0313430468C4F8303D10BD7B
:100FC000838004000080F8C030B50246002300246E
:100FD0000868012816D013686FF30E03D1E90105E4
:100FE0002843CD6828430D6928434D6928438D69FE
:100FF0002843CD6928430D6A28434D6A284303439B
:10100000136019E0136823F4F843D1E90705284376
:101010004D6A2843034354686FF30E04D1E9010578
:101020002843CD6828430D6928434D6928438D69BD
:101030002843044313605460002030BD02465069C9
:1010400040EA410050610020704718B50346002077
:101050000090D1E9000420438C68641E40EA4410EB
:10106000CC6840EA4420009000981861002018BD28
:1010700070B50346154600220024012D1FD09A6842
:1010800002F070420868401E4E68761E40EA06165E
:101090008868401E46EA0026C868401E46EA0036B8
:1010A000088A401E46EA0046888A401E46EA0056E4
:1010B000087E401E46EA006002439A6022E09A6879
:1010C00011480240C868401E0603888A401E46EA4E
:1010D00000500243DC6804F070440868401E4E680B
:1010E000761E40EA06168868401E46EA0026088AF0
:1010F000401E46EA0046087E401E46EA0060044361
:101100009A60DC60002070BDFF0F0FFF2DE9F041F9
:1011100004460025002601F085FB074614B901208E
:10112000BDE8F08194F83500022808D08020606581
:1011300000BF002084F8340000BF0120F0E74549DB
:101140002068884205D344492068884201D801209C
:1011500000E0002070B12068006820F01E002168C7
:1011600008602068406920F0800021684861A56D12
:10117000266806E02068006820F00E0021680860FC
:101180002668206E006820F48070216E0860314966
:10119000206888420AD330492068884206D82068EF
:1011A000006820F001002168086005E02068006800
:1011B00020F001002168086010E001F033FBC01B43
:1011C00005280BD92020606500BF002084F834007A
:1011D00000BF032084F835000120A1E7306800F04B
:1011E00001000028E9D11B492068884205D31A492B
:1011F0002068884201D8012000E0002028B194F83E
:101200005C103F208840A86005E094F85C10012045
:10121000884012490860606E4068A16E0843616EA4
:101220004860E06E58B1E06E006820F48070E16EB6
:101230000860206F4068616F0843216F486000BFFD
:10124000002084F8340000BF012084F8350000201D
:1012500066E7000010000240B8040240045402583F
:1012600010B504460CB9012010BD94F835000228D1
:1012700003D0802060650120F6E737492068884266
:1012800005D336492068884201D8012000E00020BB
:10129000C0B1042084F835002F49206888420AD361
:1012A0002E492068884206D82068006820F0010096
:1012B000216808604EE02068006820F00100216885
:1012C000086047E02068006820F00E002168086090
:1012D0002149206888420AD320492068884206D8DC
:1012E0002068006820F001002168086005E020689F
:1012F000006820F0010021680860206E006820F47A
:101300008070216E086094F85C10012088401449B8
:101310000860606E4068A16E0843616E4860E06ED0
:1013200058B1E06E006820F48070E16E0860206FB4
:101330004068616F0843216F486000BF002084F857
:10134000340000BF012084F83500206D10B1204624
:10135000216D8847002087E710000240B804024052
:10136000045402580146486D704700002DE9F843C7
:1013700004460027002500200090FE4800684FF436
:101380001651B0FBF1F8A66D3768FB49206888421A
:1013900005D3FA492068884201D8012000E00020E6
:1013A00000287BD094F85C1008208840384000B3B7
:1013B000F1492068884208D3F0492068884204D85F
:1013C0002068006800F0040003E02068006800F076
:1013D000080070B12068006820F0040021680860EF
:1013E00094F85C1008208840B060606D40F0010007
:1013F000606594F85C10E24888403840C8B1DE4926
:101400002068884208D3DD492068884204D82068D3
:10141000406900F0800002E020680068002040B1D0
:1014200094F85C10D6488840B060606D40F00200CF
:10143000606594F85C10D248C01C88403840D0B138
:10144000CD492068884208D3CC492068884204D816
:101450002068006800F0020002E0206800680020B8
:1014600048B194F85C10C648C01C8840B060606DFC
:1014700040F00400606594F85C101020884038400B
:1014800030B3BD492068884209D3BC4920688842EE
:1014900005D82068006800F0080004E0EFE020684C
:1014A000006800F0040098B194F85C1010208840A7
:1014B000B0602068006800F4802080B12068006877
:1014C00000F4002028B9206C10B12046216C884718
:1014D00015E0A06C98B12046A16C88470FE0206809
:1014E000006800F4807028B92068006820F00800C7
:1014F00021680860206C10B12046216C884794F860
:101500005C10202088403840002873D09A49206819
:10151000884208D399492068884204D82068006826
:1015200000F0100003E02068006800F002000028CE
:1015300060D094F85C1020208840B06094F83500AA
:10154000042829D12068006820F01600216808606E
:101550002068406920F0800021684861206C08B94B
:10156000A06C28B12068006820F00800216808609D
:1015700094F85C103F208840B06000BF002084F8E1
:10158000340000BF012084F83500206D10B12046E2
:10159000216D8847BDE8F8832068006800F480204A
:1015A00080B12068006800F4002028B9606C10B198
:1015B0002046616C88471DE0E06BD8B12046E16BA6
:1015C000884717E02068006800F4807068B92068D8
:1015D000006820F010002168086000BF002084F837
:1015E000340000BF012084F83500E06B10B12046C4
:1015F000E16B8847606D002840D0606D00F001000D
:1016000090B3042084F835005B49206888420AD3EF
:101610005A492068884206D82068006820F00100F6
:101620002168086005E02068006820F0010021685A
:10163000086000BF0098401C0090404500D905E0BC
:101640002068006800F001000028F3D100BF00BF4F
:10165000002084F8340000BF2068006800F001001A
:1016600018B1032084F8350002E0012084F8350029
:10167000E06C002802D02046E16C884797E04149A1
:101680002068884206D33F498C312068884201D8BF
:10169000012000E00020002853D025683948083890
:1016A000006894F85C20042191400840E0B128686B
:1016B00000F00400C0B1286800F0200018B92868C4
:1016C00020F0040028602F48001F006894F85C2078
:1016D0000421914008432B49091F0860206C80B306
:1016E0002046216C884762E026480838006894F854
:1016F0005C2002219140084020B3286800F00200DD
:1017000000B3286800F0200058B9286820F00A00CB
:10171000286000BF002084F8340000BF012084F856
:1017200035001848001F006894F85C2002219140A1
:1017300008431449091F0860E06B10B12046E16BB3
:10174000884734E00F480838006894F85C20082186
:101750009140084058B3286800F0080038B3286862
:1017600020F00E0028600748001F006894F85C20F5
:10177000012109E01400002410000240B8040240D6
:10178000010080000854025891400843094908604C
:101790000120606500BF002084F8340000BF0120F4
:1017A00084F83500E06C10B12046E16C884700BF3A
:1017B000F0E60000045402582DE9F04104460025EB
:1017C00001F030F80646002714B90120BDE8F08189
:1017D00080492068884205D37F492068884201D823
:1017E000012000E00020002871D0606A00B100BF35
:1017F00000BF002084F8340000BF022084F83500C8
:101800007449206888420AD373492068884206D800
:101810002068006820F001002168086005E0206869
:10182000006820F00100216808600BE000F0FAFF7A
:10183000801B052806D920206065032084F8350028
:101840000120C3E72068006800F001000028EDD106
:101850002068056861480540D4E902010843216910
:10186000084361690843A1690843E1690843216AA3
:1018700008430543606A042803D1D4E90B010843F7
:101880000543206805602068456925F00705606A02
:101890000543606A04280DD1A06A0543E06A48B197
:1018A0002046FEF7DBFE28B140206065012084F869
:1018B00035008BE7206845612046FEF751FE07465C
:1018C00094F85C103F208840B8604DE0FFE7444941
:1018D0002068884206D342498C312068884201D86A
:1018E000012000E00020B8B300BF002084F83400DD
:1018F00000BF022084F835002068056843F6F070C8
:101900008543A068402801D1102105E0A068802807
:1019100001D1C10100E00021E06841EAD001206965
:1019200041EAD001606941EAD001A06941EAD000F2
:101930002022E16902EAD1010843216A40EA11103C
:1019400005432068056026492068401A1421B0FB31
:10195000F1F08000E06507E0FFE7402060650320CC
:1019600084F83500012031E72046FEF713FEA06819
:10197000802801D1002060602079216E0860606EAF
:101980004068A16E0843616E4860606810B160688D
:10199000082807D96068B0F1805F10D911496068E4
:1019A00088420CD82046FEF72FFE0020E16E08602A
:1019B000206F4068616F0843216F486003E000209A
:1019C000E0662067606700206065012084F83500CC
:1019D0000020FBE610000240B80402403F8010FEE9
:1019E00008540258080000102DE9F04104460D4645
:1019F00016461F464FF0000814B90120BDE8F081DB
:101A000094F8350001287CD1022084F835000020AC
:101A100060654049206888420AD33F49206888426F
:101A200006D82068006820F001002168086005E001
:101A30002068006820F00100216808603B463246BB
:101A400029462046FEF762FE32492068884205D3C7
:101A500031492068884201D8012000E00020B0B15F
:101A60002068006820F01E0040F016002168086021
:101A70002068406940F0800021684861206CB0B166
:101A80002068006840F00800216808600FE02068C6
:101A9000006820F00E0040F00A0021680860206C09
:101AA00028B12068006840F0040021680860206EBA
:101AB000006800F4803028B1206E006840F4807027
:101AC000216E0860E06E28B1E06E006840F480701E
:101AD000E16E08600F49206888420BD30E492068E8
:101AE000884207D82068006840F00100216808603B
:101AF0000EE006E02068006840F001002168086000
:101B000006E000BF002084F8340000BF4FF0020858
:101B1000404673E710000240B804024070B5054625
:101B200005F12C02536952F823109669906908B99F
:101B3000012070BDD06900B1761C002423E0086943
:101B400008604FF08070C860486928B148698860B3
:101B5000C86840F00070C860C86840F00040C860C5
:101B6000106A18B1C86840F08040C8609069401E93
:101B7000A04207D900BF5B1C042B00D31B1F00BF72
:101B800052F82310641CB442D9D3286800F5805061
:101B9000C0F828110020906100BFCAE730B50446A4
:101BA0000D4604F12C0050F825100AB1042D02D383
:101BB0000120606530BD0A600A61C86840F080702D
:101BC000C8602BB18B604B61C86840F00070C86082
:101BD000C86840F00040C8600020EBE7024609B941
:101BE000012070471068006800F00C00C86210689F
:101BF0000068C0F3001081F828001068006800F049
:101C00006000486210680068C0F3002080F00100A6
:101C100081F8200010680068C0F34020C877106881
:101C20000068C0F3802080F00100887710680068A9
:101C3000C0F3C020487710680068C0F30030087710
:101C40001068006800F4005088611068006800F4B3
:101C50008040486110680068C0F3004088741068D4
:101C60000068C0F3404080F00100487410680068CC
:101C7000C0F3C04080F00100087410680068C0F331
:101C80000050C87310680068C0F340508873106833
:101C90000068C0F38050487310680068C0F3C050FB
:101CA00008731068006800F0E060886010680068E1
:101CB000C0F3C06008711068006800F0E040086080
:101CC00010684068C0F30D00486310684068C0F3B6
:101CD000004080F0010081F8320010684068C0F3D5
:101CE000404081F8310010684068C0F3804081F8BE
:101CF000300010684068C0F3006081F83800106858
:101D00004068C0F34460C8631068C068C0F3002036
:101D100081F840001068C06800F00F004864106847
:101D2000006FC0F3400081F854001068006FC0F3EA
:101D3000C01080F0010081F84C001068006F00F0C6
:101D4000700008651068006F000C88641068D0F897
:101D5000900000F0010081F856001068D0F8900063
:101D6000C0F3400081F855001068D0F8000D00F075
:101D7000720088651068D0F8300D00F02300C86547
:101D80001068D0F8300DC0F3C00081F86200106810
:101D9000D0F8300DC0F3001081F861001068D0F861
:101DA000300DC0F3801080F0010081F86000002049
:101DB00017E72DE9F04F06460C4606F12C07D7F839
:101DC00014804FF0000BDA4657F82850B86930B944
:101DD000304600F027F910B90120BDE8F08F4FF030
:101DE000000926E0686978B10CB90120F5E7286997
:101DF000206070696060A4680CB90120EDE7686933
:101E000020607069606003E028692060706960602C
:101E1000E868C0F30E0B00BF08F10108B8F1040F29
:101E200001D3A8F1040800BF57F82850A46809F1AD
:101E30000109B869401E4845D4D80CB90120CCE747
:101E4000E868C0F30E00A0EB0B0A7069504504D39C
:101E500028692060C4F804A012E0686970B128699C
:101E6000206070696060A4680CB90120B5E76869FA
:101E700020607069AAEB0000606001E00120ACE71F
:101E80000020AAE72DE9F04180460E4608F12C0417
:101E90006569A06930B9404600F0C4F810B9012066
:101EA000BDE8F08100BFA069401E0544042D00D3A9
:101EB0002D1F00BF54F82570F868C0F30E00306085
:101EC0000020EDE738B5044600250CB9012038BDE7
:101ED00094F8510010B9204600F024F9232084F82A
:101EE000510000BF4D48006840F002004B490860B7
:101EF0000846006800F00200009000BF00BF207A92
:101F000018B9002001F0AEFE03E04FF4000001F02C
:101F1000A9FE206800F58050006840F001012068AB
:101F200000F58050016000F07DFC05460CE000F0FB
:101F300079FC401BB0F5FA7F06D904206065E020EB
:101F400084F851000120C2E7206800F58050006845
:101F500000F001000028EAD12046FEF72FFD01F035
:101F6000A7F82F49B0FBF1F0401E2168C1F8DC0052
:101F70002046FEF79FFC206800F58050D0F8000155
:101F800020F4E01040F40021206800F58050C0F8F3
:101F90000011207D00F0030030B101206065E020D9
:101FA00084F85100012092E7206800F58050D0F8B5
:101FB000080147F6FE718843616940EA41012068E3
:101FC00000F58050C0F808112046FEF72EFC204690
:101FD000FEF7FDFB606800796168497940EA0120FD
:101FE0002168C1F800036068C078000661688978DC
:101FF00040EA01406168497840EA01206168097857
:1020000008432168C1F8040300206065102084F8AB
:10201000510084F85200002059E70000F4440258AF
:1020200040420F00F0B5074607F12C03196953F839
:102030002120002500240026986908B10020F0BD69
:102040003DE06D1CD06800F0805000B3641C012C92
:1020500000D10E4600BF491C042900D3091F00BF50
:1020600053F82120D06800F0004058B9D06800F043
:10207000804038B10120D86100BF491C042900D339
:10208000091F00BF19615E619C610120D7E7D0681C
:1020900000F0005050B10E46012400BF491C042935
:1020A00000D3091F00BF53F8212008E0641C00BFC3
:1020B000491C042900D3091F00BF53F82120D06810
:1020C00000F0004008B9042DBBD334B3314653F8B7
:1020D000212000251FE0106910604FF08070D06053
:1020E000506928B150699060D06840F00070D060AD
:1020F000D06840F00040D060186A18B1D06840F055
:102100008040D06000BF491C042900D3091F00BFD4
:1021100053F821206D1CA542DDD30020986100BF3B
:102120008DE7000010B586B0044600BF4448006843
:1021300040F00100424908600846006800F00100D4
:10214000009000BF00BF00BF0846006840F00200DA
:1021500008600846006800F00200009000BF00BF61
:1021600000BF0846006840F00400086008460068A8
:1021700000F00400009000BF00BF00BF08460068E8
:1021800040F0400008600846006800F04000009001
:1021900000BF00BF00BF2A480838006840F4004074
:1021A0002749083908600846006800F4004000909C
:1021B00000BF00BF00BF0846006840F480300860E0
:1021C0000846006800F48030009000BF00BF00BFE8
:1021D0000846006840F4003008600846006800F4D3
:1021E0000030009000BF00BF8620019002200290C6
:1021F00000200390022004900B20059001A91148B3
:1022000000F0F0F94FF40060019001A90E4800F0D1
:10221000E9F93220019001A90C4800F0E3F94FF4EC
:10222000C040019001A90A4800F0DCF90022012118
:102230003D2000F064FB3D2000F051FB06B010BDD6
:10224000E0440258000002580004025800080258F6
:10225000001802582DE9F04704460E4617469846E6
:102260000025A9462068D0F8000200F0010010B156
:102270000120BDE8F0872068D0F8005225F0787082
:1022800040EA465525F4F81040EA074545F00C05AC
:1022900045F001052068C0F8005200F0C3FA8146FD
:1022A00008E000F0BFFAA0EB0900B0F57A7F01D991
:1022B0000120DEE72068D0F8000200F001000028CD
:1022C000EFD12068D0F8040280B2C8F800000020E6
:1022D000CFE770B504460D460DB9012070BD94F8E6
:1022E0005200102805D129462046FEF7A3FD002004
:1022F000F4E70120F2E7000070B50646002400254F
:102300003068D0F8004224F4706400F0D1FE054635
:102310001348854205D31348854202D244F4007421
:102320001AE01048854205D30F48854202D244F492
:10233000407411E00C48854203D30C48854200D21A
:102340000AE00A48854205D30948854202D244F48E
:10235000807401E044F480643068C0F8004270BDCD
:10236000002D3101C00E16020087930300E1F50530
:1023700080D1F00830B50146002201F12C0050F860
:10238000224091F85100102864D1232081F8510097
:1023900000230EE0E06840F08040E06000BF521C87
:1023A000042A00D3121F00BF01F12C0050F8224074
:1023B0005B1C042BEED30125CD640868006840F057
:1023C00002000D6828600868006840F001000D6890
:1023D00028600868D0F8000D40F001000D68C5F8CD
:1023E000000D086800F58050D0F8040140F00105A8
:1023F000086800F58050C0F80451086800F5805066
:10240000D0F8080140F00105086800F58050C0F8D8
:102410000851086800F58050D0F8600140F48175DB
:10242000086800F58050C0F86051102081F8510014
:10243000222081F85200086800F58050D0F834015D
:102440004DF2410528430D6805F58055C5F8340166
:10245000002030BD0120FCE72DE9F04704460E4680
:1024600015464FF0000904F1180A36B9606D40F0C6
:10247000010060650120BDE8F08794F85100102844
:1024800003D094F8510021285ED1212084F8510016
:10249000002231462046FEF7CFFA28B1606D40F0A9
:1024A000020060650120E6E7A76A5AF8278000BFAE
:1024B000A06A401CA062A06A042802D3A06A001F80
:1024C000A06200BF04F11800A16A50F82110206832
:1024D00000F58050C0F8201100F0A4F9814628E0F2
:1024E000206800F58050D0F8600100F4805070B191
:1024F000606D40F008006065206800F58050D0F8FD
:102500006001A065E02084F851000120B3E7681C59
:1025100078B12DB100F086F9A0EB0900A84208D9E6
:10252000606D40F004006065102084F851000120C7
:10253000A1E7D8F80C0000F000400028D0D110200E
:1025400084F85100002096E7012094E72DE9F04738
:1025500005460E46174698460024A1462868D0F83E
:10256000000200F0010010B10120BDE8F0872868EA
:10257000D0F8004224F0787040EA465424F4F81071
:1025800040EA074424F00C00041D44F001041FFA43
:1025900088F00D4908600D48C0F8004200F042F98B
:1025A000814608E000F03EF9A0EB0900B0F57A7F23
:1025B00001D90120D9E72868D0F8000200F0010015
:1025C0000028EFD100BFD0E7048202400080024023
:1025D0000348006840F001000149086070470000AE
:1025E00020040058F8B502460B46002100250024BF
:1025F000002000BFE6E0012606FA01F51E6806EAA3
:102600000504AC4271D15E68022E02D05E68122EC3
:1026100013D1CF0802F1200656F827004E07F70E17
:102620000F26BE40B0434F07FF0E1E69BE40304329
:10263000CF0802F1200646F8270010684F00032655
:10264000BE40B0431E7906F003064F00BE40304343
:1026500010605E68012E08D05E68022E05D05E68AC
:10266000112E02D05E68122E13D190684F000326FF
:10267000BE40B0434F00DE68BE40304390605068BB
:1026800001268E40B0431E79C6F300168E403043BB
:102690005060D0684F000326BE40B0434F009E6894
:1026A000BE403043D0605E6806F08056B6F1805F71
:1026B000A8D100BF454E366846F00206434F3E6043
:1026C0003E46366806F00206009600BF00BF404E48
:1026D0008F0856F827008E07370F0F26BE40B043ED
:1026E0003C4EB24202D100262EE06AE03A4EB2429F
:1026F00001D1012628E0394EB24201D1022623E061
:10270000374EB24201D103261EE0364EB24201D10D
:10271000042619E0344EB24201D1052614E0334EAE
:10272000B24201D106260FE0314EB24201D1072656
:102730000AE0304EB24201D1082605E02E4EB242E8
:1027400001D1092600E00A268F073F0FBE40304323
:102750001F4E8F0846F82700284E3068A0435E6859
:1027600006F48036B6F5803F00D12043234E30601A
:102770004FF0B046D6F88400A0435E6806F40036F9
:10278000B6F5003F00D120431C4E361D30604FF09F
:10279000B0463068A0435E6806F48016B6F5801F28
:1027A00000D120434FF0B04630607068A0435E68AF
:1027B00006F40016B6F5001F00D120434FF0B046D6
:1027C0007060491C1029FFF416AFF8BDF44402589C
:1027D000080400580000025800040258000802587B
:1027E000000C025800100258001402580018025839
:1027F000001C025800200258002402588000005893
:10280000024613690B400BB1012000E00020704725
:1028100042694A40426170470AB1018300E0418346
:102820007047000001480068704700002000002445
:1028300002480068401C01490860704720000024DD
:1028400010B5032000F09AF80F2000F005F800F012
:1028500045F8002010BD000070B504460748006828
:102860004FF47A71B0FBF1F5284601F01AFA002214
:102870002146501E00F043F8002070BD14000024D3
:102880004178154A11600178F9B1121D4168116053
:10289000017B0907C27A41EA0261827A41EAC241B8
:1028A000427B41EA8241827B41EA4241C27B41EA6A
:1028B0000241427A41EA0221027A41EA4201027867
:1028C0001143054A0832116005E00021024A121D39
:1028D0001160121D1160704798ED00E070470146CD
:1028E0000846002809DB00F01F0301229A40430933
:1028F0009B0003F1E023C3F8002100BF70472DE9DE
:10290000F05F80460D461646002704F005FC07469A
:1029100039462A46334601F00700C0F1070ABAF1EA
:10292000040F02D94FF0040A01E0C0F1070AD146B2
:1029300000F1040ABAF1070F02D24FF0000A01E0D9
:10294000A0F1030AD4464FF0010A0AFA09FAAAF1E3
:10295000010A0AEA020A0AFA0CFA4FF0010B0BFA12
:102960000CFBABF1010B0BEA030B4AEA0B0421460B
:10297000404604F0D9FBBDE8F09F000000BF00F026
:102980000702064B19684FF6FF031940044B0B432F
:1029900043EA0221014B196000BF70470CED00E0D3
:1029A0000000FA0510B500F0CBFB0949096801F4F5
:1029B00070614FF4807292FAA2F2B2FA82F2D140C0
:1029C000044A515CC840044908600846006810BDCC
:1029D000184402588CD000081400002410B500F0F0
:1029E00067FB0749096801F07001102292FAA2F210
:1029F000B2FA82F2D140034A515CC84010BD0000D7
:102A0000204402588CD0000870B5014600220120F5
:102A1000002300249FED811AB0EE410A9FED7F1A3A
:102A2000F0EE410A7E4D2D6805F003027C4D2D68C5
:102A3000C5F305307A4D2D1D2D6805F01003784D36
:102A400014352D68C5F3CC0515FB03F501EE105ABE
:102A5000B8EE411AB0EE410A22B1012A4DD0022A45
:102A60007DD169E06E4D283D2D68C5F340152DB32D
:102A70006B4D283D2D68C5F3C1066A4D25FA06F455
:102A8000B4FBF0F501EE105AF8EE411A9FED661A0C
:102A900080EE012A624D10352D68C5F3080501EE60
:102AA000105AB8EE411A32EE011AB7EE002A31EE92
:102AB000021A21EE811AF0EE410A1DE0594DB5FBD4
:102AC000F0F501EE105AF8EE411A9FED571A80EE1C
:102AD000012A534D10352D68C5F3080501EE105A33
:102AE000B8EE411A32EE011AB7EE002A31EE021AA0
:102AF00021EE811AF0EE410A5EE04C4DB5FBF0F597
:102B000001EE105AB8EE412A9FED471AC0EE011AA5
:102B1000434D10352D68C5F3080501EE105AB8EE87
:102B2000411A31EE811AF7EE001A31EE211A22EE27
:102B3000011AF0EE410A3FE03D4DB5FBF0F501EE24
:102B4000105AF8EE411A9FED381A80EE012A344DE2
:102B500010352D68C5F3080501EE105A00E00CE0B1
:102B6000B8EE411A32EE011AB7EE002A31EE021A1F
:102B700021EE811AF0EE410A1EE02C4DB5FBF0F576
:102B800001EE105AB8EE412A9FED271AC0EE011A45
:102B9000234D10352D68C5F3080501EE105AB8EE27
:102BA000411A31EE811AF7EE001A31EE211A22EEA7
:102BB000011AF0EE410A00BF00BF194D10352D6813
:102BC000C5F346256D1C01EE105AB8EE411AC0EE51
:102BD000811ABCEEE11A81ED001A114D10352D68F5
:102BE000C5F306456D1C01EE105AB8EE411AC0EE51
:102BF000811ABCEEE11A81ED011A094D10352D68DC
:102C0000C5F306656D1C01EE105AB8EE411AC0EE10
:102C1000811ABCEEE11A81ED021A70BD00000000BD
:102C2000284402580090D00300F8FF4500093D00F9
:102C300040787D0170B50146002201200023002468
:102C40009FED811AB0EE410A9FED7F1AF0EE410A26
:102C50007E4D2D6805F003027C4D2D68C5F30550AF
:102C60007A4D2D1D2D6805F48073784D1C352D6827
:102C7000C5F3CC0515FB03F501EE105AB8EE411A69
:102C8000B0EE410A22B1012A4DD0022A7DD169E07D
:102C90006E4D283D2D68C5F340152DB36B4D283D75
:102CA0002D68C5F3C1066A4D25FA06F4B4FBF0F5AC
:102CB00001EE105AF8EE411A9FED661A80EE012AD5
:102CC000624D18352D68C5F3080501EE105AB8EEAF
:102CD000411A32EE011AB7EE002A31EE021A21EE45
:102CE000811AF0EE410A1DE0594DB5FBF0F501EEF9
:102CF000105AF8EE411A9FED571A80EE012A534DF3
:102D000018352D68C5F3080501EE105AB8EE411AC2
:102D100032EE011AB7EE002A31EE021A21EE811AC4
:102D2000F0EE410A5EE04C4DB5FBF0F501EE105AB5
:102D3000B8EE412A9FED471AC0EE011A434D1835EF
:102D40002D68C5F3080501EE105AB8EE411A31EEB0
:102D5000811AF7EE001A31EE211A22EE011AF0EE76
:102D6000410A3FE03D4DB5FBF0F501EE105AF8EE9B
:102D7000411A9FED381A80EE012A344D18352D681E
:102D8000C5F3080501EE105A00E00CE0B8EE411A58
:102D900032EE011AB7EE002A31EE021A21EE811A44
:102DA000F0EE410A1EE02C4DB5FBF0F501EE105A95
:102DB000B8EE412A9FED271AC0EE011A234D1835AF
:102DC0002D68C5F3080501EE105AB8EE411A31EE30
:102DD000811AF7EE001A31EE211A22EE011AF0EEF6
:102DE000410A00BF00BF194D18352D68C5F34625AF
:102DF0006D1C01EE105AB8EE411AC0EE811ABCEEFD
:102E0000E11A81ED001A114D18352D68C5F30645FC
:102E10006D1C01EE105AB8EE411AC0EE811ABCEEDC
:102E2000E11A81ED011A094D18352D68C5F30665C3
:102E30006D1C01EE105AB8EE411AC0EE811ABCEEBC
:102E4000E11A81ED021A70BD00000000284402580A
:102E50000090D00300F8FF4500093D0040787D0157
:102E600070B504460D4600268D48006800F0070046
:102E7000A8420ED28A48006820F0070028438849FB
:102E800008600846006800F00700A84201D0012051
:102E900070BD207800F00200022807D18148006848
:102EA00020F00F00E16808437E490860207800F0B8
:102EB0000100002851D07B48006820F47060A168B0
:102EC0000843784908606068022807D175481838B7
:102ED0000068C0F34040F8B90120D9E760680328D2
:102EE00007D1704818380068C0F34060A0B90120CD
:102EF000CEE76068012807D16A4818380068C0F337
:102F0000002048B90120C3E7664818380068C0F3BC
:102F1000800008B90120BBE762480838006820F04B
:102F20000700616808435F4908390860FFF77AFCC9
:102F300006466068022811D108E0FFF773FC801B89
:102F400041F28831884201D90320A1E75548083869
:102F5000006800F038001028EFD13AE060680328DC
:102F600011D108E0FFF75EFC801B41F288318842F6
:102F700001D903208CE74B480838006800F038007E
:102F80001828EFD125E06068012811D108E0FFF78B
:102F900049FC801B41F28831884201D9032077E740
:102FA00040480838006800F038000828EFD110E0E9
:102FB00008E0FFF737FC801B41F28831884201D9D5
:102FC000032065E737480838006800F0380000281B
:102FD000EFD13348006800F00700A8420ED930480E
:102FE000006820F0070028432D4908600846006863
:102FF00000F00700A84201D0012049E7207800F046
:103000000400042807D12748006820F070002169D7
:10301000084324490860207800F00800082809D1F6
:103020002048001D006820F07000616908431D49B8
:10303000091D0860207800F01000102809D11948F7
:10304000001D006820F4E060A16908431549091DCE
:103050000860207800F02000202809D111480830AD
:10306000006820F07000E16908430E4908310860EB
:1030700000F066F80B49096801F470614FF4807242
:1030800092FAA2F2B2FA82F2D140074A515CC840E9
:10309000064908600F20FFF7DFFB0020F8E600007C
:1030A00000200052184402588CD00008140000245C
:1030B00010B5FFF777FC0949096801F00F010122FB
:1030C00092FAA2F2B2FA82F2D140054A515CC840AB
:1030D000044908600846006810BD00001844025802
:1030E0008CD000081800002410B5FFF7E1FF074955
:1030F000096801F07001102292FAA2F2B2FA82F28B
:10310000D140034A515CC84010BD00001C44025825
:103110008CD0000810B5FFF7CBFF0749096801F410
:10312000E0614FF4807292FAA2F2B2FA82F2D140D8
:10313000024A515CC84010BD1C4402588CD00008A3
:1031400070B5012500EE905A0022012100230024D1
:10315000DFED861AB0EE610ADFED841AB0EE611A77
:103160000020834D2D6805F0380535B1082D15D0A8
:10317000102D15D0182D7CD114E07D4D103D2D68FB
:10318000C5F3401545B17A4D103D2D68C5F3C10614
:10319000784D25FA06F000E07648E5E07648E3E071
:1031A0007648E1E0724D18352D6805F00302704D48
:1031B00018352D68C5F305116D4D1C352D6805F0CA
:1031C00001036B4D24352D68C5F3CC0515FB03F5C4
:1031D00001EE905AF8EE611AB0EE610A22B1012AAE
:1031E0004FD0022A7DD16BE0614D103D2D68C5F3B3
:1031F00040152DB35E4D103D2D68C5F3C1065D4DE4
:1032000025FA06F4B4FBF1F501EE905AB8EE612A06
:10321000DFED5B1AC0EE212A554D20352D68C5F330
:10322000080501EE905AF8EE611A72EEA11AF7EE57
:10323000002A71EEA21A62EE211AB0EE611A1FE0A6
:103240004C4DB5FBF1F501EE905AB8EE612ADFED79
:103250004C1AC0EE212A464D20352D68C5F30805CD
:1032600001EE905AF8EE611A72EEA11AF7EE002AFA
:1032700000E077E071EEA21A62EE211AB0EE611A58
:103280005EE03D4DB5FBF1F501EE905AB8EE612AD6
:10329000DFED3B1AC0EE212A354D20352D68C5F3F0
:1032A000080501EE905AF8EE611A72EEA11AF7EED7
:1032B000002A71EEA21A62EE211AB0EE611A3FE006
:1032C0002E4DB5FBF1F501EE905AB8EE612ADFED17
:1032D0002C1AC0EE212A264D20352D68C5F308058D
:1032E00000E00EE001EE905AF8EE611A72EEA11ABB
:1032F000F7EE002A71EEA21A62EE211AB0EE611A00
:103300001EE01D4DB5FBF1F501EE905AF8EE612A75
:10331000DFED1B1A80EE212A154D20352D68C5F3EF
:10332000080501EE905AF8EE611A72EE211AB7EE16
:10333000002A71EE821A62EEA11AB0EE611A00BF85
:1033400000BF0B4D20352D68C5F346256D1C00EEE2
:10335000905AF8EE601A81EE212AFCEEC21A11EEA4
:10336000900A01E0044800BF00BF70BD00000000EB
:10337000104402580090D00300093D0040787D01C0
:1033800000F8FF4570B504460025207800F00100E4
:10339000002872D0F948006800F0380010280CD0DE
:1033A000F648006800F03800182812D1F3481830A9
:1033B000006800F0030002280BD1F04810380068C4
:1033C000C0F3404000286DD0606800286AD1012019
:1033D00070BD00BF6068B0F5803F08D1E748103885
:1033E000006840F48030E549103908602EE06068DC
:1033F00068B9E2481038006820F48030DF4910399D
:1034000008600846006820F4802008601EE06068BC
:10341000B0F5A02F0DD1D9481038006840F48020B5
:10342000D649103908600846006840F480300860CA
:103430000CE0D2481038006820F48030CF491039B1
:1034400008600846006820F48020086000BF6068BB
:10345000A0B1FFF7E7F9054608E0FFF7E3F9401BE5
:1034600041F28831884201D90320B1E7C3481038BE
:103470000068C0F340400028EFD013E0FFF7D2F916
:10348000054608E0FFF7CEF9401B41F2883188423B
:1034900001D903209CE7B94810380068C0F34040C8
:1034A0000028EFD1207800F00200022847D1B3486D
:1034B000006800F0380058B1B048006800F03800EB
:1034C00018283ED1AD481830006800F00300B8BBA2
:1034D000AA4810380068C0F3800018B1E06808B945
:1034E000012075E7A5481038006820F01900E16850
:1034F0000843A24910390860FFF794F9054606E031
:10350000FFF790F9401B022801D9032060E79B4890
:1035100010380068C0F380000028F1D097480C38BC
:10352000006820F47C304FF47C3292FAA2F2B2FAB6
:1035300082F221699140084390490C3908604AE0C1
:10354000FFE7E06868B38D481038006820F0190084
:10355000E1680843894910390860FFF763F90546B7
:1035600006E0FFF75FF9401B022801D903202FE78F
:10357000824810380068C0F380000028F1D07F48EE
:103580000C38006820F47C304FF47C3292FAA2F2BE
:10359000B2FA82F221699140084378490C390860F7
:1035A00019E076481038006820F00100734910399E
:1035B0000860FFF737F9054606E0FFF733F9401BCF
:1035C000022801D9032003E76C4810380068C0F3D3
:1035D00080000028F1D1207800F01000102877D169
:1035E0006648006800F0380008280CD0634800687E
:1035F00000F03800182823D160481830006800F027
:10360000030001281CD15D4810380068C0F3002079
:1036100020B1E069802801D00120D9E657480C3854
:10362000006820F0F8404FF0F84292FAA2F2B2FAA5
:1036300082F2216A9140084350490C39086047E002
:10364000E06958B34D481038006840F080004B499D
:1036500010390860FFF7E6F8054606E0FFF7E2F8E4
:10366000401B022801D90320B2E644481038006804
:10367000C0F300200028F1D040480C38006820F04A
:10368000F8404FF0F84292FAA2F2B2FA82F2216ABE
:103690009140084339490C39086019E0374810381F
:1036A000006820F08000354910390860FFF7BAF84B
:1036B000054606E0FFF7B6F8401B022801D90320B3
:1036C00086E62E4810380068C0F300200028F1D1AB
:1036D000207800F00800082836D16069D0B127486A
:1036E0006430006840F00100244964310860FFF74D
:1036F00099F8054606E0FFF795F8401B022801D926
:10370000032065E61D4864300068C0F340000028CF
:10371000F1D019E019486430006820F00100174921
:1037200064310860FFF77EF8054606E0FFF77AF897
:10373000401B022801D903204AE610486430006883
:10374000C0F340000028F1D1207800F020002028AC
:1037500034D1A069D8B109481038006840F48050CD
:10376000064910390860FFF75DF8054608E0FFF7E5
:1037700059F8401B022803D9032029E610440258B7
:10378000B0480068C0F340300028F0D016E0AD48E3
:10379000006820F48050AB490860FFF743F8054605
:1037A00006E0FFF73FF8401B022801D903200FE68F
:1037B000A4480068C0F340300028F2D1207800F01F
:1037C000040004287ED1A048006840F480709E491F
:1037D0000860FFF727F8054606E0FFF723F8401BCF
:1037E000642801D90320F3E59748006800F480704D
:1037F0000028F2D000BFA068012808D1914870309D
:10380000006840F001008F49703108602DE0A06829
:1038100068B98C487030006820F001008949703127
:1038200008600846006820F0040008601DE0A068F9
:1038300005280DD183487030006840F004008149AC
:10384000703108600846006840F0010008600CE034
:103850007C487030006820F001007A4970310860BF
:103860000846006820F00400086000BFA068012836
:1038700014D1FEF7D7FF054608E0FEF7D3FF401B43
:1038800041F28831884201D90320A1E56D487030AA
:103890000068C0F340000028EFD013E0FEF7C2FF3D
:1038A000054608E0FEF7BEFF401B41F28831884222
:1038B00001D903208CE5634870300068C0F34000F4
:1038C0000028EFD1606A00287ED05E481030006882
:1038D00000F03800182878D0606A022876D159485C
:1038E000006820F0807057490860FEF79BFF05468E
:1038F00006E0FEF797FF401B022801D9032067E589
:1039000050480068C0F340600028F2D100BFD4E9FD
:103910000A1041EA00104B492831096840F2F3329D
:1039200091430843474928310860208E401EC0F368
:103930000800616B491E4FF47E4202EA41210843B0
:10394000218F491ED20102EA014108433C21095D51
:10395000491E120202EA016108433A493031086007
:1039600000BF081D00684FF6F87188434FF6F872E3
:1039700092FAA2F2B2FA82F2A16C91400843314964
:10398000343108602F482C30006820F00C00216C86
:1039900008432C492C3108600846006820F00200DA
:1039A000616C084327492C3108600846006840F4E0
:1039B000803008600846006840F40030086008461F
:1039C000006840F4802002E039E036E01DE0086045
:1039D0000846006840F0010008601A48006840F09E
:1039E000807018490860FEF71DFF054606E0FEF7E7
:1039F00019FF401B022801D90320E9E4114800689F
:103A0000C0F340600028F2D019E00E48006820F0B2
:103A100080700C490860FEF705FF054606E0FEF7DA
:103A200001FF401B022801D90320D1E405480068AA
:103A3000C0F340600028F2D101E00120C8E400207A
:103A4000C6E40000004402580048025870B504461D
:103A50000D460CB9012070BD94F82C0028B9002047
:103A600084F82D00204600F019F8022084F82C007C
:103A7000211D2068FDF7A8FA2946D4E90002FDF7C8
:103A8000F7FA0548006840F000400349086001204B
:103A900084F82C000020DEE70040005210B586B00C
:103AA000044600BF4B48006840F0020049490860E6
:103AB0000846006800F00200009000BF00BF00BF91
:103AC00044482038006840F480504249203908605A
:103AD0000846006800F48050009000BF00BF00BF9F
:103AE0003C481438006840F004003A491439086032
:103AF0000846006800F00400009000BF00BF00BF4F
:103B00000846006840F0080008600846006800F0B9
:103B10000800009000BF00BF00BF0846006840F0EA
:103B2000100008600846006800F01000009000BF18
:103B300000BF00BF0846006840F02000086008464B
:103B4000006800F02000009000BF00BF00BF0846E2
:103B5000006840F0400008600846006800F040003F
:103B6000009000BF00BF00214FF0806000F070F8AF
:103B700000214FF0006000F06BF80D200190022052
:103B8000029001200390032004900C20059001A9CD
:103B90001148FEF727FD4CF20370019001A90F4870
:103BA000FEF720FD4FF68370019001A90C48FEF747
:103BB00019FD4FF63F00019001A90A48FEF712FDDA
:103BC00048F23710019001A90748FEF70BFD06B037
:103BD00010BD0000F444025800080258000C0258BE
:103BE00000100258001402580018025870B504461C
:103BF0000D4694F82C00022800D170BD022084F8F4
:103C00002C0029462068FDF719FA012084F82C00C1
:103C10000020F2E770B504460D46164694F82C00D5
:103C2000022800D170BD022084F82C0032462946BB
:103C30002068FDF70AFA2868022803D1052084F8D5
:103C40002C0002E0012084F82C000020EAE70000AC
:103C5000034A126882430A43014B1A60704700000E
:103C6000040400580349096821F460010143014A32
:103C70001160704704040058042808D14FF0E02177
:103C8000096941F004014FF0E022116107E04FF0B3
:103C9000E021096921F004014FF0E0221161704731
:103CA000704770B504462546681EB0F1807F01D389
:103CB00001200FE0681E4FF0E02148610F214FF016
:103CC000FF3003F031FA00204FF0E0218861072037
:103CD0000861002070BD10B5FFF7E2FF10BD70470E
:103CE000704710B504460CB9012010BD94F83D0092
:103CF00028B9002084F83C00204600F00DF802208E
:103D000084F83D00211D206802F028F8012084F885
:103D10003D000020E9E7000038B504460D49206861
:103D2000884215D100BF0C48006840F002000A49E3
:103D300008600846006800F00200009000BF00BF65
:103D4000032201211D20FEF7DAFD1D20FEF7C7FD2D
:103D500038BD000000040040E844025801460868ED
:103D6000C06840F001000A68D0600868008840F030
:103D700001000A68108000207047704710B50446A3
:103D800020680069C0F34000D8B12068C068C0F363
:103D90004000B0B16FF00200216808610120207777
:103DA0002068806900F0030018B12046FFF7E5FFA6
:103DB00005E0204600F0BEF8204600F0BCF80020E8
:103DC000207720680069C0F38000D8B12068C068FF
:103DD000C0F38000B0B16FF00400216808610220D8
:103DE00020772068806900F4407018B12046FFF702
:103DF000C4FF05E0204600F09DF8204600F09BF847
:103E00000020207720680069C0F3C000D8B1206886
:103E1000C068C0F3C000B0B16FF00800216808614D
:103E2000042020772068C06900F0030018B1204604
:103E3000FFF7A3FF05E0204600F07CF8204600F0E5
:103E40007AF80020207720680069C0F30010D8B10C
:103E50002068C068C0F30010B0B16FF01000216896
:103E60000861082020772068C06900F4407018B10C
:103E70002046FFF782FF05E0204600F05BF8204671
:103E800000F059F8002020772068006900F0010058
:103E900058B12068C06800F0010030B16FF0010037
:103EA00021680861204600F047F820680069C0F3E7
:103EB000C01058B12068C068C0F3C01030B16FF0B6
:103EC0008000216808612046FFF709FF206800692B
:103ED000C0F3002058B12068C068C0F3C01030B1F2
:103EE0006FF08000216808612046FFF7F8FE206827
:103EF0000069C0F3801058B12068C068C0F380101A
:103F000030B16FF0400021680861204600F072F87F
:103F100020680069C0F3401058B12068C068C0F341
:103F2000401030B16FF02000216808612046FFF793
:103F3000D7FE10BD7047704710B504462148844233
:103F40003FD121480068401C1F4908601F48007885
:103F500028B91F48007810B91E480078F8B11C48ED
:103F6000007878B11C480068B0F57A7F0AD9002043
:103F70001949086015490870184A1949194806F086
:103F800057F907E01248007820B9144A1449154837
:103F900006F04EF910480068401C0F4908600A48B6
:103FA0000068B0F57A7F07D99FED0F0A0F4880EDC2
:103FB000000A0020044908600D480068401C0C49B4
:103FC000086010BD90080024300000242800002460
:103FD000290000242A0000242C00002400010024D1
:103FE000D0080024400B0024000000000C00002436
:103FF0006000002470477047014691F8790021283D
:1040000005D10868806840F080000A68906091F8E7
:104010007A00222814D108200A6810620868006813
:1040200040F480700A6810600868806840F0010001
:104030000A6890600868806840F040000A689060F4
:1040400000BF002081F8780000BF704710B504461B
:1040500094F87900212812D12068806800F080004F
:1040600068B12068806820F0800021688860206F37
:1040700010B1206FFDF74AF8204602F03EF994F89F
:104080007A00222812D12068806800F0400068B1D0
:104090002068806820F0400021688860606F10B15F
:1040A000606FFDF733F8204602F007F9002010BDDD
:1040B000074A0168914202D1082102681162054A4B
:1040C0000168914202D10821026811627047000024
:1040D00000100140005000402DE9F04104462068E6
:1040E000C569206807682068866805F00F08B8F180
:1040F000000F0DD105F0200050B107F0200010B9DD
:1041000006F0805020B1204602F001F9BDE8F081B0
:10411000B8F1000F72D05D48304018B907F49070C4
:1041200000287AD005F0010048B107F4807030B162
:10413000012021680862E06F40F00100E06705F0AF
:10414000020048B106F0010030B102202168086287
:10415000E06F40F00400E06705F0040048B106F0AD
:10416000010030B1042021680862E06F40F00200D5
:10417000E06705F0080078B107F0200028B906F0E4
:10418000805010B906F0010030B1082021680862A3
:10419000E06F40F00800E067E06F70B305F02000CA
:1041A00040B107F0200010B906F0805010B1204651
:1041B00002F0ADF8E06F00F0080020B920688068D8
:1041C00000F0400018B3204602F077F820688068BD
:1041D00000F04000B8B12068806820F040002168FD
:1041E0008860606F58B12A48616F0865606FFDF79D
:1041F00037F810B1606F016D88470DE00DE0204683
:10420000FFF756FF08E02046FFF752FF04E0204684
:10421000FFF74EFF0020E06778E705F4801078B1E3
:1042200006F4800060B14FF48010216808622020FD
:1042300084F8790084F87A002046FFF7DCFE65E711
:1042400005F0800048B107F0800010B906F40000C6
:1042500018B1204602F072FD58E705F0400030B179
:1042600007F0400018B1204602F037F84EE705F499
:10427000000040B107F0804028B12068006820F0BD
:1042800080402168086000BF40E700000100001086
:10429000AF61000810B504460CB9012010BDA0693B
:1042A00000B100E000BF94F8790028B9002084F83C
:1042B0007800204600F02AF8242084F8790020684D
:1042C000006820F0010021680860204602F064F8D0
:1042D000012800D1E2E7606B10B1204601F0B8FE82
:1042E0002068406820F49040216848602068806819
:1042F00020F02A00216888602068006840F00100F2
:1043000021680860204601F018FFC7E710B586B0A5
:104310000446FB492068884259D100BFF94800682B
:1043200040F40020F74908600846006800F40020C7
:10433000009000BF00BF4FF4407001900220029037
:1043400001200390032004900820059001A9EE4865
:10435000FEF748F9ED48EE4908603F20486000212B
:10436000EB488160C1604FF48061016100214161CF
:104370008161C16101624162FDF71EFA00BFE4483C
:104380006067846300BFE1481830E249086040205C
:1043900048604021DF4881600021C1604FF48061A6
:1043A0000161002141618161C16101624162FDF7EA
:1043B00003FA00BFD7482067846300BF002211467C
:1043C0003420FEF79CFA3420FEF789FA8EE2D249B7
:1043D0002068884268D100BFCA48006840F4801055
:1043E000C84908600846006800F48010009000BFCB
:1043F00000BF4FF400500190022002900120039072
:10440000032004900E20059001A9BF48FEF7EAF8AA
:1044100004200190022002900120039003200490C8
:104420000820059001A9BD48FEF7DCF8B7483030F8
:10443000BB490860412048600021B9488160C160E3
:104440004FF480610161002141618161C1610162BC
:104450004162FDF7B1F900BFB1486067846300BFF6
:10446000AA484830AF490860422048604021AD4822
:1044700081600021C1604FF48061016100214161D0
:104480008161C16101624162FDF796F900BFA548F3
:104490002067846300BF002211463520FEF72FFA03
:1044A0003520FEF71CFA21E29F492068884259D145
:1044B00000BF9448006840F0804092490860084678
:1044C000006800F08040009000BF00BF18200190FD
:1044D0000220029001200390032004900B200590FD
:1044E00001A98948FEF77EF8884860308F49086046
:1044F0004F20486000218D488160C1604FF4806189
:104500000161002141618161C16101624162FDF788
:1045100053F900BF85486067846300BF7B487830EB
:104520008349086050204860402181488160002113
:10453000C1604FF480610161002141618161C1610D
:1045400001624162FDF738F900BF79482067846352
:1045500000BF002211465220FEF7D1F95220FEF78B
:10456000BEF9C3E17349206888425BD100BF65484A
:104570000830006840F010006249083108600846C1
:10458000006800F01000009000BF00BF4FF4C06052
:104590000190022002900120039003200490072044
:1045A000059001A96448FEF71DF864486449086055
:1045B00029204860002162488160C1604FF4806119
:1045C0000161002141618161C16101624162FDF7C8
:1045D000F3F800BF5A486067846300BF574818303B
:1045E000584908602A2048604021564881600021CF
:1045F000C1604FF480610161002141618161C1614D
:1046000001624162FDF7D8F800BF4E48206784631D
:1046100000BF002211462520FEF771F92520FEF784
:104620005EF963E148492068884267D100BF354898
:10463000006840F40030334908600846006800F420
:104640000030009000BF00BF0820019002200290BF
:1046500001200390032004900720059001A936480B
:10466000FDF7C0FF2020019002200290012003905E
:10467000032004900720059001A92848FDF7B2FF08
:104680002E483030314908602B20486000212F48E7
:104690008160C1604FF480610161002141618161ED
:1046A000C16101624162FDF787F800BF274860677A
:1046B000846300BF21484830254908602C204860A9
:1046C0004021234881600021C1604FF48061016175
:1046D000002141618161C16101624162FDF76CF8B5
:1046E00000BF1B482067846300BF002211462620BC
:1046F000FEF705F92620FEF7F2F8F7E02AE00000C1
:10470000004C0040E84402580004025810040240E3
:10471000D00F00244810002400500040000C025824
:10472000C01000243811002400780040B01100248B
:10473000281200240010014000000258100002401E
:10474000A0120024181300240044004090130024F9
:104750000814002466492068884268D100BF654873
:10476000006840F48020634908600846006800F44F
:104770008020009000BF00BF4FF4806001900220B5
:10478000029001200390032004900720059001A9C6
:104790005948FDF727FF4FF4006001900220029076
:1047A00001200390032004900720059001A953489D
:1047B000FDF718FF5248534908602D20486000213A
:1047C00050488160C1604FF4806101610021416106
:1047D0008161C16101624162FCF7EEFF00BF49489F
:1047E0006067846300BF46481830474908602E2040
:1047F00048604021444881600021C1604FF48061DD
:104800000161002141618161C16101624162FCF786
:10481000D3FF00BF3C482067846300BF00221146DD
:104820002720FEF76CF82720FEF759F85EE037499D
:10483000206888425AD100BF2E480830006840F0F6
:1048400020002C49083108600846006800F020006C
:10485000009000BF00BFC020019002200290012004
:104860000390032004900720059001A92348FDF739
:10487000B9FE2348303026490860472048600021AF
:1048800023488160C1604FF4806101610021416172
:104890008161C16101624162FCF78EFF00BF1C486B
:1048A0006067846300BF164848301A490860482092
:1048B00048604021174881600021C1604FF4806149
:1048C0000161002141618161C16101624162FCF7C6
:1048D00073FF00BF0F482067846300BF00221146AA
:1048E0004720FEF70CF84720FDF7F9FF06B010BD92
:1048F00000480040E84402580004025800080258EA
:104900007000024080140024F814002400140140B8
:1049100070150024E815002470B504460E461546AF
:1049200094F87A00202838D106B10DB9012070BD65
:104930006666A4F868500020E067212084F87A00B9
:104940001748616FC8631748616F08641648616F44
:10495000C8640020616F0865236803F124012B46B9
:10496000626E606FFDF740F800BF002084F87800A9
:1049700000BF2068006840F48070216808602068EB
:10498000806840F00100216888602068806840F0FD
:104990004000216888600020C9E70220C7E70000C6
:1049A0002362000869620008C76100087047704709
:1049B00070B504460E46154694F87900202831D18A
:1049C00006B10DB9012070BDE665A4F86050A4F8E9
:1049D00062500020E067222084F879001248216F9D
:1049E000C8631248216F08641148216FC864002011
:1049F000216F0865236803F128022B46E16D206FC3
:104A0000FCF7F2FF40202168086200BF002084F814
:104A1000780000BF2068806840F0800021688860CE
:104A20000020D0E70220CEE777620008AD620008E0
:104A3000C76100087047704700BFFEE710B500224D
:104A400010211248FDF7E8FE1048006820F440608D
:104A50000E4908600846006840F480600860002243
:104A600020210A48FDF7D8FE022002F037FD01227E
:104A700010210648FDF7D0FE022002F02FFD002293
:104A800010210248FDF7C8FE10BD0000001C0258AE
:104A900000B587B000BF1248006840F080001049A0
:104AA00008600846006800F08000019000BF00BF69
:104AB000302002900120039004900320059002A969
:104AC0000848FDF78FFD012220210648FDF7A4FECE
:104AD000012210210348FDF79FFE07B000BD000032
:104AE000E0440258001C025810B500221021124860
:104AF000FDF792FE1048006820F440600E490860FF
:104B00000846006840F480600860012220210A48BD
:104B1000FDF782FE022002F0E1FC0122102106488E
:104B2000FDF77AFE022002F0D9FC00221021024893
:104B3000FDF772FE10BD0000001C025870B505465E
:104B400000241848006820F44060164908600846B0
:104B50000068086000261AE0002210211148FDF7C5
:104B60005BFE022002F0BAFC012210210D48FDF785
:104B700053FE6006040E20210A48FDF741FE08B1ED
:104B8000601CC4B2012002F0A9FC701CC6B2082E41
:104B9000E2DB15B9FFF7A8FF01E0FFF74FFF204662
:104BA00070BD0000001C025870B504461C48006827
:104BB00020F440601A4908600846006840F48060AC
:104BC0000860002210211648FDF726FE002523E08C
:104BD000E00928B1012220211148FDF71DFE04E063
:104BE000002220210E48FDF717FE6006040E022069
:104BF00002F074FC012210210948FDF70DFE02208D
:104C000002F06CFC002210210548FDF705FE022091
:104C100002F064FC681CC5B2082DD9DB70BD000031
:104C2000001C025810B51348006820F44060114978
:104C300008600846006840F4806008600122202176
:104C40000C48FDF7E9FD012210210A48FDF7E4FDBB
:104C5000042002F043FC002220210648FDF7DCFD81
:104C6000042002F03BFC002210210248FDF7D4FD95
:104C700010BD0000001C025810B51348006820F455
:104C80004060114908600846006840F48060086090
:104C9000002210210C48FDF7BFFD002220210A4808
:104CA000FDF7BAFD042002F019FC0122102106488C
:104CB000FDF7B2FD012220210348FDF7ADFD0420E0
:104CC00002F00CFC10BD0000001C025810B50024BE
:104CD0001748006820F440601549086008460068DD
:104CE0000860012220211248FDF796FD012002F004
:104CF000F5FB012210210E48FDF78EFD012002F088
:104D0000EDFB07E0601CC4B2FA2C03DDFFF7B4FF33
:104D1000012010BD20210648FDF772FD0028F1D1C9
:104D2000002210210248FDF777FD0020F1E7000086
:104D3000001C025800B587B000BF2448006840F04E
:104D40000100224908600846006800F00100019057
:104D500000BF00BF00BF0846006840F004000860C4
:104D60000846006800F00400019000BF00BF00BFCB
:104D70000846006840F0800008600846006800F0BF
:104D80008000019000BF00BF01200290002003902E
:104D9000022004900320059002A90D48FDF722FC93
:104DA0004FF4005002900020039001200490032053
:104DB000059002A90748FDF715FC0C20029002A9F6
:104DC0000548FDF70FFC07B000BD0000E0440258A5
:104DD0000000025800080258001C025810B5044692
:104DE000012C01D12D4908702C480078002839D0B9
:104DF00008212B48FDF704FD80B104212848FDF768
:104E0000FFFC58B14FF400512648FDF7F9FC28B1DA
:104E100001212548FDF7F4FC012823D10A2002F0E6
:104E200051FB00201D49087008211D48FDF7E8FCD2
:104E300008B9012010BD04211948FDF7E1FC08B9AB
:104E40000220F7E74FF400511648FDF7D9FC08B9E6
:104E50000320EFE701211448FDF7D2FC01281BD104
:104E60000420E7E708210E48FDF7CAFC012813D10A
:104E700004210B48FDF7C4FC01280DD1410309486A
:104E8000FDF7BEFC012807D101210748FDF7B8FC5A
:104E900010B90120014908700020CBE7240000244C
:104EA000001C0258000802580000025808B50020F3
:104EB00000906946012000F03FF96946012000F0AA
:104EC0003BF9009800F0040008B9012008BD6946CC
:104ED000002000F031F9009800F48050B0F5805FB8
:104EE0001FD0009800F40050B0F5005F07D1009883
:104EF00000F48070B0F5807F01D10220E6E70098D1
:104F000000F40050B0F5005F01D10320DEE7009807
:104F100000F48070B0F5807F01D10420D6E7052031
:104F2000D4E769461F2000F007F9009800F480508C
:104F300008B90620CAE7009800F01C00182801D123
:104F40000220C3E7009800F01C00082801D10320CC
:104F5000BCE7009800F01C00142801D10420B5E73C
:104F60000520B3E7FEB500240020009000250026B0
:104F7000FBF79FF90121072000F051FC642002F0AB
:104F8000A1FA0021072000F04AFC642002F09AFAFE
:104F9000FBF791F900F0B8FB444800788DF8040065
:104FA000424840788DF80500404880788DF806002A
:104FB0003E48C0788DF807003C4800798DF808001D
:104FC0003A4840798DF8090039483A49086001A803
:104FD0004860012137480172374901613749C16092
:104FE0004FF4BF614161FCF76DFF3248FDF784F972
:104FF0004FF40041002000F0C1F8002820DB694692
:10500000002000F099F8002817DB10E06946002026
:1050100000F092F8002802DA6FF004060CE00A2093
:1050200002F050FA641CB4F5FA7F00D304E0009853
:1050300000F400400028E9D104E06FF0040601E02C
:105040006FF0030600F08AF81EB94FF47A7002F090
:1050500039FA002408E00A2002F034FA641CB4F59E
:10506000FA7F01D3012603E0FFF720FF0128F2D9E0
:1050700000BFFFF71BFF0546022D03D110A002F071
:105080003BF810E0032D03D115A002F035F80AE03B
:10509000042D03D11AA002F02FF804E0052D02D14F
:1050A0001EA002F029F83046FEBD000000BF022419
:1050B00000800240601600240000043060000430CC
:1050C0004C414E383732303A3130304D622F7320F8
:1050D00046756C6C4475706C65780D0A00000000B4
:1050E0004C414E383732303A3130304D622F7320D8
:1050F00048616C664475706C65780D0A00000000AC
:105100004C414E383732303A31304D622F732046A1
:10511000756C6C4475706C65780D0A004C414E38A6
:105120003732303A31304D622F732048616C66441B
:1051300075706C65780D0A0070B504460D462B46F7
:10514000224600210448FDF785F810B14FF0FF30EA
:1051500070BD0020FCE700006016002408B50020A8
:1051600000906946FFF7E8FF009840F480500090F7
:10517000009881B2002000F001F808BD70B5044627
:105180000D462E463346224600210448FDF7DEF93F
:1051900010B14FF0FF3070BD0020FCE76016002416
:1051A00000B587B000BF1248006840F00200104907
:1051B00008600846006800F00200019000BF00BFD0
:1051C000032002900120039004900320059002A97F
:1051D0000848FDF707FA012211460648FDF71CFBB7
:1051E000012202210348FDF717FB07B000BD0000B4
:1051F000E04402580004025810B50323002219218C
:10520000580700F013F8032301221221080700F0C9
:105210000DF8032302221821C80600F007F8032323
:105220001A461B21C80700F001F810BD2DE9FF4107
:1052300004460D4616461F4600BF1F48006820F46E
:1052400080301D4908601C487030006820F0010063
:1052500019497031086000BF01208DF80000F0B2DC
:105260008DF801000194E8B28DF8080000208DF857
:1052700009008DF80A00F8B28DF80B0000208DF8B7
:105280000C008DF80D008DF80E0001208DF80F0038
:105290006846FDF7F5FA042040F00101064A703235
:1052A00011600549096841F48031034A116000BF6B
:1052B000002004B0BDE8F08124ED00E008B500BF97
:1052C0004548006840F0010043490860084600680E
:1052D00000F00100009000BF00BF00BF084600685A
:1052E00040F0020008600846006800F002000090EC
:1052F00000BF00BF002211460B20FDF700FB0B2072
:10530000FDF7EDFA002211460C20FDF7F8FA0C200B
:10531000FDF7E5FA002211460D20FDF7F0FA0D2009
:10532000FDF7DDFA002211460E20FDF7E8FA0E2007
:10533000FDF7D5FA002211460F20FDF7E0FA0F2005
:10534000FDF7CDFA002211461020FDF7D8FA102003
:10535000FDF7C5FA002211461120FDF7D0FA112001
:10536000FDF7BDFA002211462F20FDF7C8FA2F20C5
:10537000FDF7B5FA002211463820FDF7C0FA3820B3
:10538000FDF7ADFA002211463920FDF7B8FA3920B1
:10539000FDF7A5FA002211463A20FDF7B0FA3A20AF
:1053A000FDF79DFA002211463B20FDF7A8FA3B20AD
:1053B000FDF795FA002211463C20FDF7A0FA3C20AB
:1053C000FDF78DFA002211464420FDF798FA44209B
:1053D000FDF785FA08BD0000D844025800B587B033
:1053E00000BF2948006840F080002749086008464F
:1053F000006800F08000019000BF00BF00BF0846B9
:10540000006840F0010008600846006800F00100F4
:10541000019000BF00BF00BF0846006840F00200D6
:1054200008600846006800F00200019000BF00BF5D
:1054300000BF0846006840F00400086008460068A5
:1054400000F00400019000BF00BF00BF08460068E4
:1054500040F0080008600846006800F0080001906D
:1054600000BF00BF012203210848FDF7D5F9032042
:1054700002900120039004900320059002A90348A4
:10548000FDF7B0F807B000BDE04402580004025830
:1054900010B50D480D4908600D48486000210B48C3
:1054A0008160C16001610C21416100218161C161A4
:1054B000016241628162C162016300200349486365
:1054C0000846FEF7E7FE10BD004C0040500C0024DB
:1054D000003E490010B50D480D4908600D48486070
:1054E00000210B488160C16001610C2141610021F4
:1054F0008161C161016241628162C1620163002018
:10550000034948630846FEF7C5FE10BD0050004041
:10551000D00C0024003E490010B50D480D4908602C
:105520000D48486000210B488160C16001610C2179
:10553000416100218161C161016241628162C16298
:1055400001630020034948630846FEF7A3FE10BD2F
:1055500000780040500D0024003E490010B50D4871
:105560000D4908600D48486000210B488160C1600A
:1055700001610C21416100218161C16101624162CF
:105580008162C16201630020034948630846FEF757
:1055900081FE10BD00100140D00D0024003E4900E6
:1055A00010B50D480D4908600D48486000210B48B2
:1055B0008160C16001610C21416100218161C16193
:1055C000016241628162C162016300200349486354
:1055D0000846FEF75FFE10BD00440040500E002458
:1055E000003E490010B50D480D4908600D4848605F
:1055F00000210B488160C16001610C2141610021E3
:105600008161C161016241628162C1620163002006
:10561000034948630846FEF73DFE10BD00480040C0
:10562000D00E0024003E490010B50D480D49086019
:105630000D48486000210B488160C16001610C2168
:10564000416100218161C161016241628162C16287
:1056500001630020034948630846FEF71BFE10BDA6
:1056600000140140500F0024003E49000022012197
:105670001748FDF7D1F817A001F03EFD4FF47A70FE
:1056800001F020FF19A001F037FD4FF47A7001F00E
:1056900019FF00BF00BF00BF00BF00BFBFF34F8FA7
:1056A00000BF00BF00BF1648006800F4E060154965
:1056B0000843001D1249086000BF00BF00BFBFF3D0
:1056C0004F8F00BF00BF00BF00BF00BFFDE700005D
:1056D000000402584D656D20416363657373204576
:1056E00072726F7221210D0A00000000536F667400
:1056F000205265736574696E672E2E2E0D0A0000A8
:105700000CED00E00000FA051FB500BF1E48006860
:1057100020F480301C4908601B487030006820F07D
:10572000010019497031086000BF01208DF80000A8
:105730001648019007208DF8080003208DF80B0013
:1057400001208DF80F0000208DF80E0001208DF84B
:105750000D0005208DF8010000208DF80A008DF85D
:1057600009008DF80C006846FDF78AF8042040F027
:105770000101054A703211600349096841F4803122
:10578000014A116000BF1FBD24ED00E0000004309D
:105790007047000010B586B0002400BF15480068AF
:1057A00040F00200134908600846006800F002005B
:1057B000009000BF00BF4FF4805001900020029085
:1057C000012003900320049001A90B48FCF70AFF75
:1057D000FFF75EF9FFF726FA4020FFF7E5F9FFF73C
:1057E00075FA0446FFF748FAFF2000F02BF8204630
:1057F00006B010BDE04402580004025810B5002461
:10580000FFF710FA4120FFF7CFF9FFF75FFA00200A
:10581000FFF794F90446FFF72FFA204610BD70B544
:1058200004460E46FFF7EAFF05461EB90120A040D8
:10583000854303E00120A0402843C5B2284600F07C
:1058400001F870BD10B50446FFF7ECF94020FFF7F2
:10585000ABF9FFF73BFA2046FFF7A6F9FFF736FA58
:10586000FFF70AFA0A2001F02DFE10BD7047000074
:1058700010B500231B4C236000BF00BF00BFBFF367
:105880004F8F00BF00BF00BF231F1868C0F34E3109
:1058900000BFC0F3C90200BF43F6E07303EA41133F
:1058A0004FF0404404EA827423430F4C236000BF4E
:1058B00000BF131EA2F10102EED10B1EA1F10101E6
:1058C000E7D100BF00BF00BFBFF34F8F00BF00BFD5
:1058D00000BF00BF00BF00BFBFF36F8F00BF00BF9E
:1058E00000BF10BD84ED00E074EF00E010B50023B0
:1058F000234C236000BF00BF00BFBFF34F8F00BF2A
:1059000000BF00BF231F1868C0F34E3100BFC0F3B3
:10591000C90200BF43F6E07303EA41134FF040446D
:1059200004EA82742343174C236000BF00BF131E98
:10593000A2F10102EED10B1EA1F10101E7D100BFDE
:1059400000BF00BFBFF34F8F00BF00BF00BF0C4BB5
:10595000703B1B6843F48033094C703C236000BFEC
:1059600000BF00BFBFF34F8F00BF00BF00BF00BF2D
:1059700000BF00BFBFF36F8F00BF00BF00BF10BDEF
:1059800084ED00E060EF00E000BF00BF00BFBFF3A8
:105990004F8F00BF00BF00BF00BF00BF00BFBFF3FD
:1059A0006F8F00BF00BF00BF00201449086000BF18
:1059B00000BF00BFBFF34F8F00BF00BF00BF00BFDD
:1059C00000BF00BFBFF36F8F00BF00BF00BF0C4818
:1059D000006840F400300A49086000BF00BF00BF03
:1059E000BFF34F8F00BF00BF00BF00BF00BF00BFAD
:1059F000BFF36F8F00BF00BF00BF704750EF00E0E4
:105A000014ED00E010B500231B4C236000BF00BF65
:105A100000BFBFF34F8F00BF00BF00BF231F186838
:105A2000C0F34E3100BFC0F3C90200BF43F6E073BC
:105A300003EA41134FF0404404EA827423430F4CBD
:105A4000236000BF00BF131EA2F10102EED10B1EA6
:105A5000A1F10101E7D100BF00BF00BFBFF34F8F2D
:105A600000BF00BF00BF00BF00BF00BFBFF36F8F0C
:105A700000BF00BF00BF10BD84ED00E060EF00E09C
:105A800000B587B01648174908600020486001211A
:105A9000144881600821C1601021016140214161E9
:105AA0004FF4C07181610021C1614FF40061016256
:105AB000490041620021816202200090082001908B
:105AC00006200290039002200490059006906946FB
:105AD0000448FDF7BBFF034800F006F807B000BD1F
