:020000040800F2
:10000000206C0024B50200084F660008015C00085F
:100010004D660008E7040008AD710008000000000C
:10002000000000000000000000000000FB66000867
:100030009105000800000000F9660008FD66000850
:10004000CF020008CF020008CF020008CF0200084C
:10005000CF020008CF020008CF020008CF0200083C
:10006000CF020008CF020008CF020008E904000810
:10007000F5040008010500080D0500081905000831
:100080002505000831050008CF020008C905000851
:10009000D5050008CF020008CF020008CF020008F3
:1000A000CF020008CF020008CF020008CF020008EC
:1000B000E5670008CF020008CF020008CF02000861
:1000C000CF020008CF020008CF020008CF020008CC
:1000D000CF0200082D7000088D700008ED70000838
:1000E000CF020008CF02000800000000FD670008F2
:1000F000CF020008CF020008CF0200083D0500082B
:10010000CF020008CF020008F1670008CF02000804
:10011000E16800085D690008CF020008CF0200080E
:100120004905000855050008610500086D0500082F
:100130007905000895050008CF020008CF020008E5
:1001400000000000000000000000000000000000AF
:1001500085050008CF020008CF0200084D71000895
:10016000CF020008CF020008CF020008CF0200082B
:10017000CF020008CF020008CF02000800000000F4
:10018000CF020008CF020008CD690008CF020008A6
:10019000CF020008CF020008CF020008CF020008FB
:1001A000CF020008CF020008CF020008CF020008EB
:1001B000CF020008CF020008CF020008CF020008DB
:1001C000CF020008CF020008CF020008CF020008CB
:1001D000CF020008CF020008CF020008CF020008BB
:1001E000CF020008CF020008CF020008CF020008AB
:1001F000CF020008CF020008CF020008CF0200089B
:10020000CF020008CF020008CF020008CF0200088A
:10021000CF020008CF020008CF020008CF0200087A
:10022000CF020008CF020008CF0200080000000043
:10023000CF020008CF02000800000000CF02000833
:10024000CF020008CF020008CF020008CF0200084A
:10025000CF020008CF020008CF020008CF0200083A
:10026000CF020008CF020008CF020008CF0200082A
:10027000CF020008CF020008CF02000800000000F3
:10028000CF020008CF020008CF02000800000000E3
:1002900000000000CF020008DFF814D000F0E6F8FC
:1002A00000F09EF800480047DDF30008AFF300803F
:1002B000206C00240648804706480047FEE7FEE71A
:1002C000FEE7FEE7FEE7FEE7FEE7FEE7FEE7FEE706
:1002D00001670008990200082DE9F05F054600203B
:1002E00092469B4688460646814640241BE02846A7
:1002F00041464746224600F0A8F853465A46C01ADF
:10030000914110D311461846224600F08FF82D1A5D
:1003100067EB01084F4622460120002100F086F8D5
:1003200017EB00094E41201EA4F10104DFDC484612
:1003300031462A464346BDE8F09F00000649074A79
:100340000868504343F2390210440860400870477F
:100350000149086070470000FC0300246D4EC6414F
:1003600010B5431A934209D28318881803E010F895
:10037000011D03F8011D521EF9D210BD40EA010310
:100380009B0703D009E008C9121F08C0042AFAD24B
:1003900003E011F8013B00F8013B521EF9D210BDF9
:1003A000D2B201E000F8012B491EFBD270470022B7
:1003B000F6E710B513460A4604461946FFF7F0FF64
:1003C000204610BD30B504460020034600E05B1C0B
:1003D000934203D2E05CCD5C401BF8D030BD0000FE
:1003E00070B5054C054D03E0206820448047241D6E
:1003F000AC42F9D170BD0000A44A0108B84A010816
:1004000030B50B46014600202022012409E021FAE4
:1004100002F59D4205D303FA02F5491B04FA02F5E1
:100420002844151EA2F10102F1DC30BD202A04DBB4
:10043000203A00FA02F1002070479140C2F12003F7
:1004400020FA03F3194390407047202A04DB203A36
:1004500021FA02F00021704721FA02F3D040C2F1E4
:10046000200291400843194670470000064C074D92
:1004700006E0E06840F0010394E807009847103474
:10048000AC42F6D3FFF70CFF844A0108A44A0108E6
:1004900070B58C1810F8015B15F0070301D110F846
:1004A000013B2A1106D110F8012B03E010F8016B73
:1004B00001F8016B5B1EF9D12B0705D40023521EF6
:1004C0000DD401F8013BFAE710F8013BCB1A921C5E
:1004D00003E013F8015B01F8015B521EF9D5A1425C
:1004E000D8D3002070BDFEE7014800F06FBB0000CC
:1004F0006C100024014800F069BB0000E4100024E7
:10050000014800F063BB00005C110024014800F0CA
:100510005DBB0000D4110024014800F057BB00006F
:100520004C120024014800F051BB0000C41200240A
:10053000014800F04BBB00003C130024014800F0D0
:1005400045BB0000B4130024014800F03FBB00008D
:100550009C0D0024014800F039BB0000140E00245B
:10056000014800F033BB00008C0E0024014800F06D
:100570002DBB0000040F0024014800F027BB000041
:100580007C0F0024014800F021BB0000F40F002480
:1005900070470000094810B50EF064F90848402182
:1005A00001234FF40042006800F58B5002600160A7
:1005B0000360BDE81040024801F06BBBC416002484
:1005C0001C15002472B6FEE7014802F01DB90000B8
:1005D00008040024014802F017B90000A804002410
:1005E0002DE9F84F044602F0D5FE002C009008D00B
:1005F00094F83500022805D080216165002084F838
:100600003400E3E0C84DC84EC7491835206830367D
:10061000DFF81883DFF818938842DFF818A3DFF8B3
:1006200018B32ED0A8422CD0B0422AD0404528D0B2
:10063000484526D0504524D0584522D0BE4A1832CD
:1006400090421ED0BD4A90421BD0BC4A1832904204
:1006500017D0BA4A3032904213D0B84A483290424A
:100660000FD0B64A603290420BD0B44A78329042F2
:1006700007D0B24A9032904203D0B04AA83290429A
:1006800009D1026822F01E0202602068426922F04D
:100690008002426103E0026822F00E0202602768D5
:1006A0008F4238464DD0A8424BD0B04249D0404549
:1006B00047D0484545D0504543D0584541D09E4A43
:1006C000183290423DD09D4A90423AD09B4A18320F
:1006D000904236D0994A3032904232D0974A4832CE
:1006E00090422ED0954A603290422AD0934A783276
:1006F000904226D0914A9032904222D08F4AA8321E
:1007000090421ED08E4A90421BD08D4A14329042A5
:1007100017D08B4A2832904213D0894A3C329042FB
:100720000FD0874A503290420BD0854A64329042B3
:1007300007D0834A7832904203D0814A8C32974264
:1007400004D1206E026822F480720260764920682B
:10075000884228D0A84226D0B04224D0404522D09A
:10076000484520D050451ED058451CD072491831FC
:10077000884218D07149884215D070491831884292
:1007800011D06E49303188420DD06C4948318842D1
:1007900009D06A496031884205D068497831884279
:1007A00001D066499031016821F00101016010E03B
:1007B00002F0F0FD0099401A05280AD9202262654E
:1007C0000020032184F8340084F835100120BDE8AE
:1007D000F88F3868C007EBD1534A01212068904256
:1007E0002ED0A8422CD0B0422AD0404528D048452F
:1007F00026D0504524D0584522D04F4B183398422C
:100800001ED04E4B98421BD04C4B1833984217D0F9
:100810004A4B3033984213D0484B483398420FD05C
:10082000464B603398420BD0444B7833984207D004
:10083000424B9033984203D0404BA833984208D1A2
:1008400094F85C703F23A06D07F01F07BB408360E6
:1008500007E094F85C30A06D03F01F0301FA03F386
:100860004360206890424DD0A8424BD0B04249D05E
:10087000404547D0484545D0504543D0584541D0E4
:100880002D4A183290423DD02C4A90423AD02B4A01
:100890001832904236D0294A3032904232D0274A1C
:1008A000483290422ED0254A603290422AD0234AC4
:1008B0007832904226D0214A9032904222D01F4A6C
:1008C000A83290421ED01E4A90421BD01C4A1432BD
:1008D000904217D01A4A2832904213D0184A3C321C
:1008E00090420FD0164A503290420BD0144A6432D4
:1008F000904207D0124A7832904203D0104A8C328C
:1009000090420BD1D4E919024260E06E30B1026826
:1009100022F480720260D4E91C024260002084F854
:10092000340084F8351052E71000024058000240AD
:100930007000024088000240A00002401004024003
:10094000085402582DE9F05F28B190F835100229BB
:1009500004D0802141650120BDE8F09F904C904B70
:100960000168183C18338E4ADFF83C92A1428D4C46
:10097000DFF838E28E4FDFF83CB2DFF83CA28F4D53
:100980008F4E31D091422FD099422DD0A1422BD001
:10099000494529D0714527D0B94225D0DFF810C28A
:1009A0000CF1180C61451FD0DFF808C2ACF1600CE7
:1009B000614519D0DFF8FCC1ACF1480C614513D09A
:1009C000DFF8F0C1ACF1300C61450DD0DFF8E4C1C7
:1009D000ACF1180C614507D0594505D0514503D0FD
:1009E000A94201D0B1422CD1DFF8B4C14FF00408C4
:1009F00080F83580ACF1180C61451DD091421BD0B8
:100A0000994219D0A14217D0494515D0714513D04C
:100A1000B94211D06648183081420DD0654860381F
:100A2000814209D063484838814205D06148303856
:100A3000814201D05F481838086820F00100086042
:100A4000ABE0D1F800C02CF00E08DFF854C1C1F8BB
:100A50000080ACF1180C0168614527D0914225D087
:100A6000994223D0A14221D049451FD071451DD0C4
:100A7000B9421BD0DFF838C10CF1180C614515D014
:100A8000DFF830C1ACF1600C61450FD0DFF824C154
:100A9000ACF1480C614509D0DFF818C1ACF1300C5D
:100AA000614503D0DFF80CC1ACF1180CD1F800C0DF
:100AB0002CF0010CC1F800C0DFF8E4804FF0010C0D
:100AC0000168A8F11808414546D0914244D09942A6
:100AD00042D0A14240D049453ED071453CD0B942B8
:100AE0003AD0334A1832914236D0324A603A914273
:100AF00032D0304A483A91422ED02E4A303A914272
:100B00002AD02C4A183A914226D0594524D0514532
:100B100022D0A94220D0B1421ED02A4A91421BD0F5
:100B2000284A1432914217D0264A2832914213D0D3
:100B3000244A3C3291420FD0224A503291420BD08B
:100B4000204A6432914207D01E4A7832914203D043
:100B50001C4A8C32914218D1016E0A6822F48072CC
:100B60000A6090F85C20816D02F01F020CFA02F21C
:100B70004A60D0E919124A60C16E31B10A6822F4A4
:100B800080720A60D0E91C124A600022016D80F870
:100B9000342080F835C001B188470020DCE6000031
:100BA00028000240580002407000024088000240C5
:100BB000A00002407004024088040240A0040240E9
:100BC000B804024008540258406D70472DE9FC5F9C
:100BD0000446FA4E0020DFF8E48300904FF41652EA
:100BE000F74808F11808A56DDFF8D0A3DFF8CCB3FB
:100BF00001680AF1300A20680BF1480BB1FBF2F1F1
:100C0000B04201912F68D5F800C0DFF8B89336D014
:100C10004146884233D0504531D058452FD0E7491E
:100C2000603188422BD0E5497831884227D0E349AA
:100C30009031884223D0E149A83188421FD04845ED
:100C40001DD0E0491831884219D0DE493031884240
:100C500015D0DC4A4832904211D0DA4960318842DE
:100C60000DD0DFF860E30EF1780E704507D0D54B5C
:100C70009033984203D0D349A83188427ED194F86A
:100C80005C20082102F01F0201FA02F23A424BD026
:100C9000B04233D0404531D050452FD058452DD0AB
:100CA000C64A6032904229D0C44A7832904225D058
:100CB000C24A9032904221D0C04AA83290421DD000
:100CC00048451BD0BF4A1832904217D0BD4A303237
:100CD000904213D0BB4A483290420FD0B94A60329A
:100CE00090420BD0B74A7832904207D0B54A903242
:100CF000904203D0B34AA832904203D1026802F076
:100D0000040202E0026802F008026AB1026822F0FE
:100D10000402026094F85C0000F01F008140A960AA
:100D2000606D40F00100606594F85C00012100F006
:100D30001F008140394241D02068B04235D0404543
:100D400033D0504531D058452FD09C4A6032904224
:100D50002BD09A4A7832904227D0984A90329042CB
:100D600023D0964AA83290421FD048451DD0954ABC
:100D70001832904219D0934A303200E0B2E19042EA
:100D800013D0904A483290420FD08E4A603290423F
:100D90000BD08C4A7832904207D08A4A90329042E7
:100DA00003D0884AA83290427ED1406910F0800F6B
:100DB00004D0A960606D40F00200606594F85C00AA
:100DC000042100F01F00814039423FD02068B0422A
:100DD00033D0404531D050452FD058452DD0774A9B
:100DE0006032904229D0754A7832904225D0734AB9
:100DF0009032904221D0714AA83290421DD048458D
:100E00001BD0704A1832904217D06E4A303290424E
:100E100013D06C4A483290420FD06A4A60329042F6
:100E20000BD0684A7832904207D0664A903290429E
:100E300003D0644AA83290424FD1006810F0020FEC
:100E400004D0A960606D40F00400606594F85C0017
:100E5000102100F01F008140394259D02068B04273
:100E600035D0404533D0504531D058452FD0534A26
:100E7000603290422BD0514A7832904227D04F4A6C
:100E80009032904223D04D4AA83290421FD048451C
:100E90001DD04C4A1832904219D04A4A3032904202
:100EA00015D0484A483200E015E090420FD0454A3C
:100EB000603290420BD0434A7832904207D0414A88
:100EC0009032904203D03F4AA832904207D1006846
:100ED00000F0080006E0006870E70068B6E7006808
:100EE00000F00400A0B1A96020680168490304D59E
:100EF0000068000308D5A16C07E00168C90503D4A8
:100F0000016821F008010160216C09B12046884781
:100F100094F85C00202100F01F008140394278D015
:100F20002068B04233D0404531D050452FD058458D
:100F30002DD0224A6032904229D0204A7832904205
:100F400025D01E4A9032904221D01C4AA8329042AD
:100F50001DD048451BD01B4A1832904217D0194A61
:100F60003032904213D0174A483290420FD0154A7F
:100F7000603290420BD0134A7832904207D0114A27
:100F80009032904203D00F4AA832904203D10068B9
:100F900000F0100002E0006800F00200A0B3A960B9
:100FA00094F835000428206801680DD049037DD5E8
:100FB0000068000329D4616C28E0000010000240A2
:100FC000080000241004024021F01601016020688E
:100FD000416921F080014161206C08B9A06C20B109
:100FE0002068016821F00801016094F85C303F211D
:100FF000002203F01F0301209940A96084F83420E7
:1010000084F83500216D66E003E0E16B09B120460C
:101010008847606D00287DD0606DC0075AD0206879
:10102000042184F83510B0422BD0404529D05045DA
:1010300027D0584525D09E49884222D09C49183156
:1010400088421ED09A49303188421AD09849483196
:10105000884216D0484514D09649884211D0954907
:10106000183188420DD093493031884209D09149D6
:101070004831884205D08F496031884201D08D497E
:101080007831016821F00101016020680099019A1E
:10109000491C0091914202D80168C907F6D100218C
:1010A00084F834100068C00711D000E001E003208C
:1010B0000EE00168C905A8D403680022012123F0CD
:1010C0001003036084F8342084F835109DE7012074
:1010D00084F83500E16C00291CD002B02046BDE840
:1010E000F05F0847744988421DD073491431884223
:1010F00019D071492831884215D06F493C31884256
:1011000011D06D49503188420DD06B49643188420D
:1011100009D000E086E068497831884203D066490A
:101120008C3188427ED194F85C800427016808F0F5
:101130001F0807FA08F717EA0C0F009746D04F0769
:1011400044D500980F04686003D5C8033CD4A16C53
:10115000C1E7880638D42068B0422DD054494839B8
:10116000884229D0504527D0584525D0504988423B
:1011700022D04F49183188421ED04D493031884223
:101180001AD04B494831884216D0484514D04949B5
:10119000884211D04749183188420DD090420BD077
:1011A00044494831884207D0704505D0984203D061
:1011B00040499031884203D1016821F0080102E0E2
:1011C000016821F004010160216C84E7022707FA1D
:1011D00008F717EA0C0F00974ED08F074CD50098F0
:1011E0000F04686003D5C80344D4616C73E78806B4
:1011F00040D42068B0422FD02D49483988422BD0A6
:10120000504529D0584527D02949884224D028491B
:101210001831884220D02649303188421CD02449D8
:10122000483100E041E0884216D0484514D02149B9
:10123000884211D01F49183188420DD090420BD0FE
:101240001C494831884207D0704505D0984203D0E8
:1012500018499031884203D1016821F0140102E05D
:10126000016821F00A010160002184F83410012096
:1012700084F83500E16B2EE7082202FA08F212EA40
:101280000C0F12D0090710D5016821F00E01016082
:1012900094F85C100120002201F01F0100FA01F116
:1012A0006960606584F8342012E7BDE8FC9F0000A7
:1012B0007000024028040240085402582DE9F05FF3
:1012C000044602F067F8002C07467DD0E34E022169
:1012D00020684FF00308DFF888934FF00005DFF82F
:1012E00084A3B042DFF880B334D0DC4A1832904295
:1012F00030D048452ED050452CD058452AD0DA4A17
:101300001832904226D0D84A3032904222D0D64A63
:10131000483290421ED0D54A90421BD0D34A183250
:10132000904217D0D14A3032904213D0CF4A48323F
:1013300090420FD0CD4A603290420BD0CB4A7832E7
:10134000904207D0C94A9032904203D0C74AA8328F
:1013500090427DD184F8345084F83510B0422ED0BC
:10136000BE49183188422AD0484528D0504526D059
:10137000584524D0BC491831884220D0BA49303170
:1013800088421CD0B8494831884218D0B7498842B1
:1013900015D0B6491831884211D0B449303188424D
:1013A0000DD0B2494831884209D0B04960318842F5
:1013B00005D0AE497831884201D0AC4990310168FE
:1013C00021F00101016008E027E100BF01F0E2FF28
:1013D000C01B052801D920211CE120680068C00736
:1013E000F4D104F108002168D4E9053C8E4685C893
:1013F00009681043D4E907281F43636A38439C4FA8
:1014000040EA0C001043394040EA0800042B40EA4F
:10141000010003D1D4E90B1211430843954909682F
:101420006FF30F01B1F1005F0FD36168A1F12902E1
:10143000052A08D9163A032A05D9083A012A02D9F9
:101440004F39032901D840F48010CEF8000000E0A5
:1014500023E02068676A4069042F20F0070047EA0C
:1014600000070DD1D4E90A01074349B120460AF02B
:1014700011FF28B140206065012184F83510CCE0CF
:101480002068476120460AF02FFF94F85C203F2136
:1014900002F01F029140816054E0774A90421BD0D5
:1014A000754B1433984217D0734B2833984213D09E
:1014B000714B3C3398420FD06F4B503398420BD056
:1014C0006D4B6433984207D06B4B7833984203D00E
:1014D000694B8C3398427DD1684B84F8345084F842
:1014E00035100168A26801EA030E402A73D0802AF1
:1014F00072D00022D4E90378D4E9053142EAD70258
:1015000042EAD8085C4AD4E9077C48EAD30848EAAA
:10151000D10141EAD701524241EA1C11142341EAA8
:101520000E01016020681044B0FBF3F08000E0651C
:1015300020460AF0D9FE94F85C20012102F01F0237
:10154000914041602068B04257D0444918318842E8
:1015500053D0484551D050454FD058454DD04249C1
:101560001831884249D040493031884245D03E49FF
:101570004831884241D03D4988423ED03B491831EC
:1015800088423AD039493031884236D037494831DB
:10159000884232D03549603188422ED03349783183
:1015A00088422AD031499031884226D02F49A8312B
:1015B000884222D0304988421FD02F4914318842B6
:1015C0001BD02D492831884217D02B493C31884205
:1015D00013D002E01DE017E018E02749503188429F
:1015E0000BD025496431884207D02349783188429D
:1015F00003D021498C31884229D120460AF0CEFE01
:10160000A06880280CD00CE0102273E74FF48042D1
:1016100070E74021616584F835800120BDE8F09FC6
:101620006560216E20790860D4E919014160606825
:10163000401E072808D820460AF0FEFEE06E05602E
:10164000D4E91C01416002E0E56625676567012079
:10165000656584F835000020E0E7000010000240D6
:101660004000024058000240700002401004024056
:101670003F8010FE0010005C085402580F00FEFF6F
:101680002DE9F84F04008C464FF00000009013D075
:1016900094F83400012811D094F83550012000212D
:1016A00084F83400012D0BD084F83410C20200906D
:1016B00062650098BDE8F88F0120FBE70220F9E79A
:1016C0008C4D0226206884F83560A8428A4D6165F9
:1016D0008A4E8B4FDFF82C82DFF82C92DFF82CA299
:1016E000DFF82CB226D0A84224D0B04222D0B84293
:1016F00020D040451ED048451CD050451AD05845F2
:1017000018D08449884215D082491831884211D0B6
:101710008049303188420DD07E494831884209D015
:101720007C496031884205D07A497831884201D0BD
:1017300078499031016821F001010160614620463D
:101740000AF098FC6B49206888422CD0A8422AD025
:10175000B04228D0B84226D0404524D0484522D0B7
:10176000504520D058451ED06A4A90421BD0694A45
:101770001832904217D0674A3032904213D0654AEF
:10178000483290420FD0634A603290420BD0614A97
:101790007832904207D05F4A9032904203D05D4A3F
:1017A000A83290420CD1026822F01E0242F01602CA
:1017B0000260206C88B12068026842F008020BE0E9
:1017C000026822F00E0242F00A020260206C20B190
:1017D0002068026842F004020260206888424BD010
:1017E000A84249D0B04247D0B84245D0404543D046
:1017F000484541D050453FD058453DD0454A90429C
:101800003AD0444A1832904236D0424A303290425E
:1018100032D0404A483290422ED03E4A6032904206
:101820002AD03C4A7832904226D03A4A90329042AE
:1018300022D0384AA83290421ED0374A90421BD05C
:10184000354A1432904217D0334A2832904213D08E
:10185000314A3C3290420FD02F4A503290420BD046
:101860002D4A6432904207D02B4A7832904203D0FE
:10187000294A8C3290420DD1206E0268D20303D5E2
:10188000026842F480720260E06E18B1026842F4AD
:10189000807202602068884226D0A84224D0B042DC
:1018A00022D0B84220D040451ED048451CD05045DB
:1018B0001AD0584518D01749884215D01549183103
:1018C000884211D01349303188420DD01149483136
:1018D000884209D00F496031884205D00D497831DE
:1018E000884201D00B499031016841F0010101604B
:1018F000DFE60000100002402800024040000240E5
:10190000580002407000024088000240A0000240DF
:10191000B8000240100402400854025870B5044652
:1019200001F038FD0546601C02D0044800780444EC
:1019300001F030FD401BA042FAD370BD100000241E
:1019400000F14402F0B5D2E9054352F8241023B166
:10195000D56905B15B1C002522E00120F0BD0F69AF
:101960004FF080760F60CE604E692EB14E698E606A
:10197000CE6846F00076CE60CE6846F00046CE6077
:10198000166A1EB1CE6846F08046CE605E1EB54235
:1019900005D2641C042C00D3241F52F824106D1CA3
:1019A0009D42DCD30468002304F58054C4F8281158
:1019B000936103661846F0BD704710B500EB8104D3
:1019C000646C0AB1042903D301214167084610BDA4
:1019D0002260E06840F08070C4E903022BB1A3608C
:1019E000E068636140F00070E060E06840F0004053
:1019F000E060002010BD704700297DD002681268A9
:101A000002F00C02CA6202681268C2F3001281F886
:101A100028200268126802F060024A6202681268B6
:101A200042F30022521C81F8202002681268C2F39F
:101A30004022CA770268126842F38022521C8A77D9
:101A400002681268C2F3C0224A7702681268C2F3C1
:101A500000320A770268126802F400528A61026852
:101A6000126802F480424A6102681268C2F30042BE
:101A70008A740268126842F34042521C4A74026837
:101A8000126842F3C042521C0A7402681268C2F320
:101A90000052CA7302681268C2F340528A73026825
:101AA0001268C2F380524A7302681268C2F3C052CD
:101AB0000A730268126802F0E0628A6002681268C3
:101AC000C2F3C0620A710268126802F0E0420A6062
:101AD00002685268C2F30D024A630268526842F318
:101AE0000042521C81F8322002685268C2F3404220
:101AF00081F83120026800E062E05268C2F380425F
:101B000081F8302002685268C2F3006281F8382000
:101B100002685268C2F34462CA630268D268C2F3C0
:101B2000002281F840200268D26802F00F024A6465
:101B30000268126FC2F3400281F854200268126FEB
:101B400042F3C012521C81F84C200268126F02F05E
:101B500070020A650268126F120C8A640268D2F879
:101B6000902002F0010281F856200268D2F89020FD
:101B7000C2F3400281F855200268D2F8002D02F02D
:101B800072028A650268D2F8302D02F02302CA651B
:101B90000268D2F8302DC2F3C00281F862200268D8
:101BA000D2F8302DC2F3001281F861200068D0F81D
:101BB000300D40F38010401C81F860000020704719
:101BC00001207047F0B50C00816D00F14406054618
:101BD0004FF0000756F8210002D0B2691AB109E0AF
:101BE0000120686739E0284600F0F2F9A0B3716976
:101BF00056F82100002215E0036923606B696360D9
:101C0000436923B1A468436923606B696360C0685A
:101C1000491C0429C0F30E0700D3091FA468521CF5
:101C200056F82100B3695B1E9342E5D8C16802698A
:101C300022606A69C1F30E01C91B8A4201D3616047
:101C400008E0436943B16260A26840691060686956
:101C5000081A50600020F0BDFFE70120FBE770B5D7
:101C600000F144040D46D4E9056111B900F0B0F962
:101C700068B1A069761E3044042800D3001F54F8D0
:101C80002000C068C0F30E002860002070BD012055
:101C900070BD70B50446006800F58050D0F8601142
:101CA00049060DD5D0F83401400609D5204600F08C
:101CB000B7FA206848F2400100F58050C0F8601182
:101CC000206800F58050D0F86011C9070DD0D0F819
:101CD0003401C00709D0204600F0C3FB206848F259
:101CE000010100F58050C0F86011E026206800F581
:101CF0008050D0F86011490425D5D0F8341149043A
:101D000021D5616F41F008016167D0F86011C90405
:101D10000DD5D0F8601141F202121140A167D0F840
:101D2000341121F44041C0F83411E66608E0D0F8DF
:101D300060214FF4CD4102F4CD42A267C0F860119A
:101D40002046FFF739FE20680025D0F8B010C1F317
:101D50004131032907D1D0F8B800E067E666204694
:101D600000F0A9F9E5672068D0F8B010C9060AD5D7
:101D7000D0F8C00000F06000C4F88000204600F0F9
:101D80001BFAC4F880502068D0F8B01089060AD534
:101D9000D0F8C00000F00F00C4F884002046FFF720
:101DA0002AFEC4F884504FF0B040D0F8A810490281
:101DB00006D54FF48001C0F8A810204600F052FB71
:101DC00070BD0000F8B5040002D0E06E10B104E070
:101DD0000120F8BD204600F06FF92320E06672482C
:101DE000016841F002010160006800F0020000900B
:101DF000207A08B14FF4000002F042FE206800F59E
:101E00008050016841F00101016001F0C3FAE02651
:101E100005464FF4FA7706E001F0BCFA401BB842E1
:101E200001D9042049E0206800F580500068C0070F
:101E3000F2D12068D0F8000220F4706502F0BAFAFE
:101E40005A495B4A0144914202D245F4007516E0BA
:101E5000584A594902448A4202D245F440750EE07C
:101E60005649574A0144914209D35649564A0844B3
:101E7000904202D245F4807501E045F48065206807
:101E8000C0F8005202F096FA504A2168B0FBF2F016
:101E9000401EC1F8DC0020460AF008FB206800F56F
:101EA0008050D0F8001121F4E01141F40021C0F875
:101EB00000116169880703D001206067E66687E743
:101EC000206847F6FE7300F58050D0F808219A4349
:101ED00042EA4101C0F8081100210A46E06802EB1D
:101EE000420504EB820300EBC500016041608160A4
:101EF000C160521C042A9861F0D3A16203232068B8
:101F000000F58050C0F82C312068E26800F5805060
:101F1000C0F814212068E26800F58050C0F8202144
:101F20005FF00002206902EB420604EB820500EB41
:101F3000C600016041608160C160521C0161042AD9
:101F400041616864EED36165A165E1656166216602
:101F5000206800F58050C0F830312068226900F513
:101F60008050C0F81C212268206902F58052483058
:101F7000C2F828011022D4E900308088C3F8000399
:101F8000D4E900308578C77890F801C006782D0430
:101F900046EA076045EA0C252843C3F80403616755
:101FA000E26622670020F8BDF444025800D3CEFE5A
:101FB000C0E1E40040F1E9FD40787D0100796CFC6E
:101FC000005A6202001F0AFA80F0FA0240420F0033
:101FD000F0B5416D00F14402C76D0026334634462A
:101FE00052F8215057B30020F0BDEF68761CFF0077
:101FF0001AD55B1C012B00D10C46491C042900D3C7
:10200000091F52F82100C568002D08DBC068400098
:1020100005D50120D061491C042900D3091F936113
:102020000120C2E90414F0BDED68AD0012D50C46E4
:10203000491C012310E000BF52F82150EF68002F27
:1020400001DB042ED1D39BB3C2E9041452F824104F
:10205000002526E0491C5B1C0429EDD3091FEBE792
:10206000D1E904764FF0807C0F60C1F80CC026B136
:102070008E60CE6846F00076CE60CE6846F00046B0
:10208000CE60166A1EB1CE6846F08046CE605E1EF7
:10209000B54205D2641C042C00D3241F52F824102E
:1020A0006D1C9D42DCD3006800F58050C0F82811FB
:1020B0000020906197E77047F0B587B0044614217F
:1020C0006846FEF774F936492068884265D135487C
:1020D000016841F400410160016801F4004105918B
:1020E000016841F480310160016801F4803105919B
:1020F000016841F400310160006800F4003005908F
:1021000028480830016841F004010160016801F0CD
:1021100004010591016841F001010160016801F0CD
:1021200001010591016841F040010160006802244D
:102130000125694600F04000059003260B27322058
:102140008DE8F100184801F001F8862069468DE815
:10215000F100164800F0FAFF4FF4D04069468DE8D0
:10216000F100134800F0F2FF00223D20114601F07B
:10217000D7F93D2001F0C6F90E4C0022042120467B
:1021800001F0FCF86420FFF7C9FB0122204604217E
:1021900001F0F4F86420FFF7C1FB07B0F0BD0000C8
:1021A00000800240D844025800080258000002583B
:1021B00000180258001C0258704700002DE9F04139
:1021C000044600681E46D0F80032DB0719D1D0F86B
:1021D000003223F0787343EA415121F4F81141EAC7
:1021E000024141F00D01C0F8001201F0D3F84FF4A4
:1021F0007A77054608E000BF01F0CCF8401BB842F2
:1022000002D90120BDE8F0812068D0F80002C007A3
:10221000F2D12068D0F8040280B230600020F1E7EB
:10222000704710B511B1026F102A01D0012010BD06
:102230000AF002FA002010BD70B505460068D0F81B
:10224000000220F4706402F0B5F81149114A01440B
:10225000914202D244F4007416E00F4A0F4902443E
:102260008A4202D244F440740EE00D4A0D49024401
:102270008A4209D30C4A0D491044884202D244F4E0
:10228000807401E044F480642868C0F8004270BDA6
:1022900000D3CEFEC0E1E40040F1E9FD40787D01CD
:1022A00000796CFC005A6202001F0AFA80F0FA0200
:1022B00030B5C16E102901D0012030BD2322C0F8F5
:1022C0006C20002100EB8102526CD368491C042968
:1022D00043F08043D360F5D30121416601681023A8
:1022E00022244DF241020D6845F002050D6001689F
:1022F0000D6845F001050D600168D1F8005D45F0FD
:102300000105C1F8005D016801F58051D1F8045163
:1023100045F00105C1F80451016801F58051D1F87B
:10232000085145F00105C1F80851016801F58051D7
:10233000D1F8605145F48175C1F86051016801F52B
:102340008051D1F834511543C1F83451C366046744
:10235000002030BDC16E49B32321C166102201683F
:1023600001F58051D1F8043123F00103C1F80431A3
:10237000016801F58051D1F8083123F00103C1F85B
:10238000083101680B6823F001030B600168D1F884
:10239000003D43F00103C1F8003D01680B6823F0E4
:1023A00002030B60C266026700207047012070477D
:1023B0002DE9F0419046044619B1E06E102804D092
:1023C0004DE0606F40F0010007E0002220460AF077
:1023D00007FA20B1606F40F0020060673FE0A06A3A
:1023E00004EB8001401C04288D69A06201D3001F0A
:1023F000A0620146206804EB810100F580508969E4
:10240000C0F8201100F0C6FFE02706461CE0206857
:1024100000F58050D0F86001C0040AD5606F40F02C
:1024200008006067206800F58050D0F86001A06760
:1024300014E0B8F1FF3F07D000F0ACFF811B41452D
:1024400008D8B8F1000F05D0E8680028DFDB0020CD
:10245000BDE8F081606F40F004006067E76601202E
:10246000F6E770477047000070B504460068D0F882
:102470000052ED071FD1D0F800029BB2124D20F0A0
:102480007870C5F8043240EA415020F4F81040EA70
:10249000024020F00C00001D40F00100C5F80002D1
:1024A00000F078FF4FF47A76054606E000F072FF00
:1024B000401BB04201D9012070BD2068D0F8000255
:1024C000C007F3D170BD00000080024010B590F845
:1024D0009830012B09D0022B07D0D0F89C1041F086
:1024E0000201C0F89C10012010BD03689C6D0C42D5
:1024F00003D1DC6D44F0010404E09C6D31EA040476
:102500001FD00324DC658B0505D50368D3F8E040B4
:102510001443C3F8E0404B0505D50368D3F8E44005
:102520001443C3F8E4400068084A01EA0203446D1A
:10253000074A1C434465106840EA9170106000200F
:1025400010BDDC6D44F00204DCE70000FFFFCF3F6C
:1025500014A8004070B5044690F89800022804D0F2
:10256000D4F89C0040F008000DE02068D0F8C0309E
:1025700013F07C5F0BD0D0F8C4309B020CD5D4F89C
:102580009C0040F40070C4F89C00012070BDD4F899
:102590009C0040F02000F6E7D0F8C400C0F30445EA
:1025A00020462B460AF098FB21680120A840C1F87C
:1025B000D000C4F89400002070BD704770B590F84A
:1025C0009820012A09D0022A07D0D0F89C1041F0A7
:1025D0000201C0F89C10012070BD0B68CA6883B16D
:1025E0000B69072A43EA427325D00C7A4A6942EA0A
:1025F00084724968006F00EBC100C0E9003200201E
:1026000070BD072A0DD00C7AD6060D8A4B6943EAB5
:10261000847246EA0543C06E49681A4340F8212097
:10262000EDE70B8A4FF06055D1E9062442EA0342F8
:1026300045EA0423EFE78A69DBE730B590F8985064
:10264000039C012D07D0D0F89C1041F00401C0F884
:102650009C10012030BD0D01016845EA820040EA6E
:1026600043002043C1F88000002030BD7047704710
:10267000F0B590F898400025022C04D0D0F89C10BA
:1026800041F008012BE040294FF0004605D04129D8
:1026900029D0046D8C4219D942E00468D4F8A070A6
:1026A00017F4FE0F12D0D4F8A4707F0613D0D4F81C
:1026B000A470FF0105D5D4F8A070B6EBD77F00D188
:1026C0000125D4F8A470466F446C24E0D0F89C1027
:1026D00041F0200103E0D0F89C1041F48071C0F873
:1026E0009C100120F0BD0468D4F8B07017F4FE0F00
:1026F000ECD0D4F8B4707F06EDD0D4F8B470FF01FC
:1027000005D5D4F8B070B6EBD77F00D10125D4F849
:10271000B470866FC46CC7F305273D446C4302E078
:10272000446DC66F4C4306EB8404266816F0804661
:102730005660266836D026F060461660D4F800C091
:1027400000262F4F0CF0005CC2F808C0D4F800C07F
:102750000CF0004CC2F810C0B4F804C01FFA8CFC96
:10276000C2F81CC0D4F804C00CF4702CC2F80CC021
:10277000D4F804C00CF4801CC2F814C0D4F804C00F
:102780000CF4001CC2F818C0D4F804C0CCF3066CDA
:10279000C2F820C0D4F804C008344FEADC7CC2F888
:1027A00024C008E0C6F38A46C7E700BF14F806C095
:1027B00003F806C0761CD2F80CC007EB1C4C9CF842
:1027C00000C0B445F2D840290AD041290CD02029B4
:1027D0004FF001020CD200688A40C0F898200DE04A
:1027E0000068C0F8A85009E00068C0F8B85005E0DB
:1027F000006801F01F018A40C0F89C200020F0BD55
:1028000060470108704700002DE9FC5FDFF804B362
:10281000044600680BF104028246DBF80070D2F82F
:102820000080026D416D036D466DD0F85090456D8E
:10283000D0F850C009F0F00005EA0009DAF8545069
:10284000DAF8500000F0607EB80700EA8870009067
:10285000DAF85470DAF8548002F4704003F00F0292
:10286000014001910CF071535FEAC85106EA02067B
:1028700005EA030507EA0E070DD5DAF85000C00592
:1028800009D500214FF48073CAF85030CBF80010FE
:102890002046FFF7B7FF2068416D490511D5016D4E
:1028A00049050ED5D0F8DC20D0F8E41000234FF411
:1028B0008068C0F850801140CBF80030204600F00E
:1028C00040FCDFF85482009850B12268830F00EA80
:1028D00008001065CBF8003020460099FFF76DFE28
:1028E000019850B12268830F00EA08001065CBF808
:1028F00000302046019900F026FC56B12268B30F43
:1029000006EA08001065CBF800303146204600F09A
:10291000B9FAB9F1000F0BD022684FEA997309EAAE
:1029200008001065CBF800304946204600F070FBE7
:102930002068416D09050BD5016D090508D50021F9
:102940004FF400630365CBF80010204600F0FCFB59
:102950002068416D890511D5016D89050ED5D0F826
:10296000D820D0F8E01000234FF4007CC0F850C00D
:102970001140CBF80030204600F0E4FB2068416DA8
:1029800009030BD5016D090308D500214FF400237D
:102990000365CBF80010204600F072FA2068416D04
:1029A000C9030BD5016DC90308D500214FF480334D
:1029B0000365CBF80010204600F0C2FB2068416D93
:1029C00049030BD5016D490308D500214FF480233D
:1029D0000365CBF80010204600F0B1FB2068416D84
:1029E00089030ED5016D89030BD500214FF4003307
:1029F0000365CBF80010D4F89C0040F08000C4F8C8
:102A00009C0057B12268BB0F07EA08001065CBF89D
:102A1000003039462046FFF72AFE5DB12268AB0F31
:102A200005EA08001065CBF80030D4F89C00284374
:102A3000C4F89C0039492068884262D160688146A8
:102A4000806880075DD0D9F82060D9F82410D9F8C3
:102A50002080D9F82400D9F82030D9F82470D9F88A
:102A60002020D9F82450D9F820C002F4FC4206F006
:102A70000F0AD9F82460154008F0300803F4C07339
:102A80000CF4F02C11EA0A0100EA080807EA03072F
:102A900006EA0C0604D0C9F82010204600F04CFBD2
:102AA000B8F1000005D0616808624146204600F098
:102AB00045FB6068416A49060CD5016A490609D59B
:102AC000C16BC26B40230362090C204602F03F0237
:102AD00000F033FB2FB1606807623946204600F0F2
:102AE0002AFB35B160680562D4F89C002843C4F81D
:102AF0009C0036B160680662D4F89C003043C4F88C
:102B00009C00D4F89C00002802D02046FFF7AEFDC0
:102B1000BDE8FC9F10A80040FFFFCF3F00A0004091
:102B20002DE9F04194B08D494C2204466846FDF7EA
:102B300017FC64B18A4D2068A84202D100F580706C
:102B4000606094F898004FF0000820B108E0012080
:102B500014B0BDE8F081204684F8998000F002F9B5
:102B60002068816921F01001816100F013FC0327C6
:102B7000064604E000F00EFC801B0A2811D82068ED
:102B800080690007F6D42068816941F00101816104
:102B900000F000FC06460DE000F0FCFB801B0A285C
:102BA00008D9D4F89C0040F00100C4F89C0084F8D7
:102BB0009870CCE720688069C007EDD020688169F3
:102BC00041F002018161207C01282068816937D0B1
:102BD00041F040018161607C01282068816932D028
:102BE00021F480418161A07C0128206881692DD079
:102BF00041F4805181612068A268816921F44071AB
:102C0000114381612068816921F0A40181612068FC
:102C1000016921F010010161E068012819D010B3A9
:102C200002281BD02068816941F080018161206801
:102C3000016941F010010161E06803280ED012E043
:102C400021F04001C6E741F48041CBE721F48051F7
:102C5000D0E72068816941F0040103E020688169C0
:102C600041F020018161207E6FF0FF02D4E90773FB
:102C7000A68A1102400602EB0727A0F10070384334
:102C800027685B1E184301EB06463043F861A068D5
:102C9000B0F5407F11D104F12800A68C6FF00F0C25
:102CA00089C801EB0641401E02EB03221043226853
:102CB0000CEB071318430843D060206E30B1206836
:102CC000626ED0F8C0101143C0F8C010D4E91712DA
:102CD0006846D14209D02168A36E51F8C82F50F838
:102CE000233022F007021A430A60216C49B121689F
:102CF000626C51F8BC3F50F8226023F00702324367
:102D00000A60A16C51B12168E36C51F8BC2F50F8F6
:102D1000233022F0700242EA03120A60216D51B1A1
:102D20002168626D51F8BC3F50F8220023F4E06244
:102D300042EA002008602068A84204D160688168E7
:102D400021F003018160C4F894800121C4F89C80C3
:102D500084F89810204609F0FFFFF9E67047010853
:102D600000A000402DE9F047B6B0074614212FA877
:102D7000FDF71DFBBC216846FDF719FB3B4D4FF4E9
:102D800000403B4A4FF0010839680C3D364E0027A1
:102D9000364C91424FF002094FF0090A2ED11B9791
:102DA0000090684600F06EFD08B1FDF70BFC30683E
:102DB000401C3060012807D1206840F480702060FA
:102DC000206800F480703490286840F0800028600B
:102DD00028684FF4C0432FA900F08000CDE933A04C
:102DE000CDE92F392348CDE9317800F0AFF9002241
:102DF0001320114600F094FB132030E01E4A91424C
:102E00002FD11B970090684600F03CFD08B1FDF7FC
:102E1000D9FB3068401C3060012807D1206840F49D
:102E200080702060206800F480703490286840F042
:102E30000200286028684FF482532FA900F0020096
:102E4000CDE933A0CDE92F390C48CDE9317800F038
:102E50007DF900221420114600F062FB142000F0DE
:102E600051FB36B0BDE8F08700000024EC44025866
:102E700000A00040001C025800A4004000040258BA
:102E8000704700002DE9F34F83B05B4C0025022909
:102E900000950195E16003D0012901D0042974D186
:102EA000554F4FF0005ADFF854B140F20128DFF8D7
:102EB0005091083F534E4021524A6B460398FFF70A
:102EC000D7FBDDE90002C7E9030232882280F268FD
:102ED000120CE2702288424511D199F8001049B1D4
:102EE0004949CBF86C000198CBF810004888401C89
:102EF00048806EE0CBF8CC50CBF8D05069E0218808
:102F0000A1F50072023A12D02188A1F50072033AAD
:102F100020D02188B1F5017F38D02188A1F54072F9
:102F2000563A2AD02088B0F5907F42D051E099F8E7
:102F3000001051B13149C1F800033348019AC1F87A
:102F4000A422C188491CC18043E0CBF86053CBF870
:102F500064533EE099F8001051B12849C1F82402A9
:102F60002948019AC1F8C821C189491CC18130E0B2
:102F7000CBF88452CBF888522BE023493860019873
:102F80007860488A401C488223E031E099F80010BC
:102F900051B11A49C1F848011B48019AC1F8EC2007
:102FA0004189491C418114E0CBF8A851CBF8AC51C0
:102FB0000FE099F8000060B19DED010AF2EE040AFD
:102FC0001148124920EE200A81ED020AC18A491CEB
:102FD000C182B068504502D10120A07000E0A57008
:102FE000A26A054903989047607D00287FF463AF8B
:102FF00005B0BDE8F08F000024000024CC4A002476
:103000006401002484140024304700245401002467
:103010002DE9F04F89B00D46002683461C2102A8F9
:1030200000960196FDF7C3F9324C202DE56003D0E0
:10303000102D01D0402D59D12E4F4FF0005ADFF8FE
:10304000B890DFF8B880343F09F180052A4A412161
:103050006B4680325846FFF70BFBDDE90010C7E9ED
:103060000E102A882280EA68120CE2702288512A07
:103070000CD02288522A15D02288532A20D02088AA
:10308000A86850452AD10120A07028E0C9E90010A5
:1030900019491B480AF034F9B8F87211491CA8F80C
:1030A0007211EDE7C9E9021013491548083148309B
:1030B0000AF026F9B8F8BA11491CA8F8BA11DFE7E6
:1030C000C9E904100C490E48103190300AF018F983
:1030D000B8F80212491CA8F80212D1E7A6705846A7
:1030E000A26A04499047607D0028AFD109B0BDE8CD
:1030F000F08F0000500000242C140024745400248D
:10310000A055002490F89810012907D0D0F89C1001
:1031100041F00401C0F89C1001207047022180F8A2
:103120009810002201688B6923F001038B61C0F8BD
:103130009C20104670477047704770477047704733
:103140007047704770477047704700002DE9FC4F8B
:1031500001257E4C00234FF0030A4FF0B04E4FF094
:103160000F0BEBE005FA03F637403A0077D04F68D3
:10317000012F05D0022F03D0112F01D0122F1AD109
:1031800087684FEA4308D1F80CC00AFA08F927EA21
:1031900009070CFA08FC4CEA070CC0F808C047689D
:1031A00091F804C0B743CCF3001C0CFA03FC4CEAC2
:1031B000070CC0F804C0C6684FEA430CD1F8088079
:1031C000E1460AFA0CF7BE43019708FA09F848EA03
:1031D0000608C0F80C804E68022E01D0122E12D1C3
:1031E000DE084FEA437C00EB860600960F69366ADC
:1031F0004FEADC6C0BFA0CF807FA0CF726EA080623
:103200003743009E37620E790768DDF804C006F088
:10321000030606FA09F627EA0C073E4306604E68E5
:10322000F6001CD54A4E376847F00207376036680B
:103230009F0706F00206009623F0030606F1B0464B
:10324000B1463F0FD6F80864DFF808810BFA07FC97
:10325000404526EA0C0603D14FF0000C41E06CE03B
:10326000DFF8F4C0604502D14FF0010C39E0DFF81F
:10327000ECC0604502D14FF0020C32E0DFF8E0C054
:10328000604502D14FF0030C2BE0DFF8D8C0604559
:1032900002D14FF0040C24E0DFF8CCC0604502D12D
:1032A0004FF0050C1DE0DFF8C4C0604502D14FF0BF
:1032B000060C16E0DFF8B8C0604502D14FF0070CED
:1032C0000FE0DFF8B0C0604502D14FF0080C08E015
:1032D000DFF8A4C0604502D14FF0090C01E04FF0C7
:1032E0000A0C0CFA07FC4CEA060CC9F808C426685C
:1032F0004F6826EA0206FF0300D51643266066687B
:103300004F6826EA0206BF0300D516436660D1F86F
:1033100004C07646DEF800705FEACC2C27EA02078C
:1033200000D517433760D1F804C077685FEA8C2C6A
:1033300027EA020700D5174377605B1C0A68174627
:10334000DA407FF40FAFBDE8FC8F0000800000582A
:10335000F4440258000002580004025800080258C1
:10336000000C0258001002580014025800180258AD
:10337000001C025800200258002402580AB1816142
:1033800070470904FBE7000001480068000C704723
:103390000010005C014880687047000010000024A5
:1033A000024881680278114481607047100000244F
:1033B000032010B500F0D4F801F042F80F4A10498C
:1033C00014681368C4F3032203F00F038A5CC95C1A
:1033D00002F01F0201F01F01D0400A4A20FA01F159
:1033E000116009490860002000F010F808B10120C0
:1033F00010BD00F079F8002010BD000018440258FC
:10340000484701080C0000240800002470B50D4D49
:1034100004462878A0B14FF47A71B1FBF0F00A4964
:103420000968B1FBF0F001F035FB48B9102C07D268
:1034300000222146501E00F073F800206C6070BD21
:10344000012070BD1000002408000024F0B5154CC8
:103450004378211D0A1D23600378F3B143680B6094
:10346000057BC67A817A437B2D07847B45EA066516
:10347000C77B90F809C0067A90F800E045EAC140A1
:1034800040EA834040EA444040EA074040EA0C20DA
:1034900040EA460040EA0E0001E0002008601060AB
:1034A000F0BD000098ED00E0BFF35F8F04480021FD
:1034B0000368034A23F4803303607032116070475D
:1034C00024ED00E0074A40F0010006497032106028
:1034D000086840F480300860BFF34F8FBFF36F8FF0
:1034E0007047000024ED00E0054808B5016841F090
:1034F00002010160006800F00200009008BD0000B9
:10350000F4440258002809DB410900F01F02890039
:10351000012001F1E0219040C1F800017047000056
:103520000E4BF0B41B680D46C3F30223C3F107062C
:10353000042E00D90426191D072901D2002300E01A
:10354000DB1E012404FA06F19C40491E2940641E3A
:10355000994014402143F0BC09F0E2BC0CED00E0BE
:10356000064900F0070210B54FF6FF040868044B47
:10357000204040EA02201843086010BD0CED00E036
:103580000000FA05134970B50A68D243520705D501
:10359000096801F00701814213D118E00A6822F09E
:1035A000070202430A60FFF7F5FE0A4D4FF47A76F0
:1035B0000446083D07E000BFFFF7ECFE001BB042E9
:1035C00001D9012070BD2868C0438004F4D40020D4
:1035D00070BD00000C48025810B500F0EBFE054924
:1035E0000968054AC1F30211515C01F01F01C8408E
:1035F00010BD00002044025848470108494930B531
:10360000484C0B1D0A68143409681D68246802F0D0
:103610000303C5F30012C1F30531C4F3CC04002940
:1036200014FB02F200EE102AF8EE400A75D03F4A71
:103630009FED3D1AB7EE000A6BB1DFED3D1A012B8D
:1036400001D0022B64D002EE101A1168F8EE422A63
:1036500081EEA22A21E0334C283C23689B0612D538
:10366000344B246801EE901A1168C4F3C104F8EEDB
:10367000612AE34001EE903AC1F30801F8EE611AC5
:1036800081EEA22A0BE001EE901ADFED2B2A00BF9B
:10369000F8EE611A116882EEA12AC1F3080101EE69
:1036A000901A1168F8EE611A40EE811A71EE800AE4
:1036B00062EE200AC1F3462101EE101AB8EE411A5B
:1036C00031EE001AC0EE811ABCEEE11A80ED001A4C
:1036D0001168C1F3064101EE101AB8EE411A31EE3D
:1036E000001AC0EE811ABCEEE11A80ED011A1168D1
:1036F000C1F3066101EE101AB8EE411A31EE000A6C
:1037000080EE801ABCEEC10A80ED020A30BD04E0F2
:1037100001EE901ADFED092ABAE70021016041604D
:103720008160F3E728440258000000393844025809
:103730000024744A0090D0030024744C20BCBE4B7B
:10374000494930B5484C0B1D0A681C3409681D688E
:10375000246802F00303C5F30022C1F30551C4F34A
:10376000CC04002914FB02F200EE102AF8EE400A05
:1037700075D03F4A9FED3D1AB7EE000A6BB1DFED01
:103780003D1A012B01D0022B64D002EE101A1168F1
:10379000F8EE422A81EEA22A21E0334C283C23682D
:1037A0009B0612D5344B246801EE901A1168C4F3BD
:1037B000C104F8EE612AE34001EE903AC1F308013A
:1037C000F8EE611A81EEA22A0BE001EE901ADFED0D
:1037D0002B2A00BFF8EE611A116882EEA12AC1F30C
:1037E000080101EE901A1168F8EE611A40EE811A94
:1037F00071EE800A62EE200AC1F3462101EE101A32
:10380000B8EE411A31EE001AC0EE811ABCEEE11A90
:1038100080ED001A1168C1F3064101EE101AB8EEEE
:10382000411A31EE001AC0EE811ABCEEE11A80EDA9
:10383000011A1168C1F3066101EE101AB8EE411ABF
:1038400031EE000A80EE801ABCEEC10A80ED020A59
:1038500030BD04E001EE901ADFED092ABAE700213D
:10386000016041608160F3E728440258000000399C
:10387000404402580024744A0090D0030024744C41
:1038800020BCBE4B2DE9FC5F044650F8241B0025EC
:1038900000902E460801FE4FDFF8F8831DD5606EBC
:1038A00050B1B0F5801F0CD0B0F5001F0ED0B0F5B0
:1038B000401F1DD001250FE0386840F4003038600B
:1038C00016E00221201D09F03DFB03E000980221D3
:1038D00009F0C8FB05000BD02E462088C00523D573
:1038E000606D05281ED2DFE800F00C11161B1B00CE
:1038F000626ED8F8001021F440111143C8F800108E
:10390000EBE7386840F40030386009E00021201D02
:1039100009F018FB03E00098002109F0A3FB05461D
:103920006DB100E001252E462088800528D5A06DC8
:1039300080281ED00CDC90B140280ED114E0626DBE
:10394000D8F8001021F007011143C8F80010EBE788
:10395000C02813D0B0F5807F10D001250FE0386863
:1039600040F40030386009E00021201D09F0EAFA37
:1039700003E00098002109F075FB054695B12E463D
:103980002088DFF81093400509F108092CD5D4F8F8
:10399000A400B0F5800F20D00DDCA0B1B0F5001F61
:1039A0000FD115E0A26DD8F8001021F4E071114399
:1039B000C8F80010E4E7B0F5C00F13D0B0F5000F61
:1039C00010D001250FE0386840F40030386009E07D
:1039D0000021201D09F0B6FA03E00098002109F04B
:1039E00041FB054675B12E46208800052DD5D4F83B
:1039F000A800B0F1007F21D00EDCA8B1B0F1807F2B
:103A000010D116E0D4F8A420D9F8001021F46001F8
:103A10001143C9F80010E7E7B0F1407F13D0B0F1CF
:103A2000806F10D001250FE0386840F40030386016
:103A300009E00021201D09F085FA03E0009800212B
:103A400009F010FB05466DB12E46206880011FD598
:103A5000A06CD8B110280FD0202812D0302815D053
:103A6000012514E0D4F8A820D9F8001021F0E06175
:103A70001143C9F80010E8E7386840F400303860B6
:103A800004E00221201D09F05DFA05466DB12E46C5
:103A90002088C0042BD5E06DB0F5005F20D00DDC90
:103AA000A0B1B0F5805F0FD115E07A48A26C001F7D
:103AB000016821F0300111430160E9E7B0F5405F92
:103AC00013D0B0F5804F10D001250FE0386840F4D6
:103AD0000030386009E00021201D09F033FA03E0CE
:103AE0000098002109F0BEFA054685B12E462088CF
:103AF000800429D5206EB0F5403F23D010DC08B3F8
:103B0000B0F5803F14D0B0F5003F0FD115E0E26D65
:103B1000D8F8001021F4E0411143C8F80010E6E79E
:103B2000B0F5802F0ED0B0F5A02F0BD001250AE004
:103B30000121201D09F006FA03E00098012109F097
:103B400091FA05468DB12E46208840042AD5D4F836
:103B5000AC00B0F1405F23D010DC08B3B0F1805F5F
:103B600014D0B0F1005F0FD115E0226ED8F800102C
:103B700021F4E0211143C8F80010E5E7B0F1804FCF
:103B80000ED0B0F1A04F0BD001250AE00121201D7D
:103B900009F0D8F903E00098012109F063FA05461D
:103BA0006DB12E46208800041FD5E06ED8B1B0F16B
:103BB000805F0ED0B0F1005F10D0012514E0D4F882
:103BC000AC20D9F8001021F0E0411143C9F80010F1
:103BD000E8E7386840F40030386004E00121201D37
:103BE00009F0B0F905466DB12E462068C0011ED51A
:103BF000606CD0B101280ED0022811D0032814D057
:103C0000012513E0E26ED8F8001021F04051114375
:103C1000C8F80010E9E7386840F40030386004E084
:103C20000221201D09F08EF9054685B12E46206837
:103C3000DFF85CB04002ABF11C0B57D516480168A9
:103C400041F480710160FFF7A5FB82460EE0114848
:103C5000626C001F016821F0030111430160E6E777
:103C6000FFF798FBA0EB0A0064283DD80A480068DB
:103C7000C005F5D57DBBDFF81CA0B4F8B0200AF173
:103C8000200ADAF8001002F4407001F4407105E0F7
:103C90002C4402585044025800480258814211D026
:103CA000DAF80010DAF8002021F4407142F4803292
:103CB000CAF80020DAF8002022F48032CAF8002086
:103CC000CAF80010D4F8B000B0F5807F21D1FFF71A
:103CD00061FB019019E008E0FFF75CFB0199411AD4
:103CE00041F28830814210D903252E462078DFF832
:103CF00044A4C0073DD0A06F182838D026DC80B37C
:103D0000082829D0102825D12CE0DAF800008007F7
:103D1000E2D5D4F8B010C1F30120032858460DD0E5
:103D2000016821F47C510160B4F8B020DAF8001089
:103D3000C2F30B021143CAF80010D7E7FE4A03682A
:103D400002EA111223F47C511143ECE720280ED033
:103D500028280CD001250BE00121201D09F0F2F8E4
:103D600004E004E00098012109F07CF905465DB10A
:103D70002E46207880071ED5606F062819D2DFE80E
:103D800000F0160C11161616A26FDAF8001021F0CA
:103D900038011143CAF80010EBE70121201D09F09A
:103DA000D1F803E00098012109F05CF9054675B1EE
:103DB00000E001252E46207840071FD5D4F890005A
:103DC000062819D2DFE800F0160C11161616626FDD
:103DD000DAF8001021F007011143CAF80010EAE7F1
:103DE0000121201D09F0AEF803E00098012109F03F
:103DF00039F905469DB100E001252E462078800660
:103E00002BD5D4F88C00B0F1405F24D011DC10B376
:103E1000B0F1805F15D0B0F1005F10D116E0D4F89A
:103E20009020D9F8001021F007011143C9F80010C3
:103E3000E4E7B0F1804F0ED0B0F1A04F0BD00125D8
:103E40000AE00021201D09F07DF803E0009802211E
:103E500009F008F905468DB12E46207840062BD58D
:103E6000D4F89800B0F5406F24D011DC10B3B0F551
:103E7000806F15D0B0F5006F10D116E0D4F88C200B
:103E8000DAF8001021F0E0411143CAF80010E4E72D
:103E9000B0F5805F0ED0B0F5A05F0BD001250AE031
:103EA0000021201D09F04EF803E00098022109F0DE
:103EB000D9F805468DB12E46207800062BD5D4F8CA
:103EC0009C00B0F5C04F24D011DC10B3B0F5005FFA
:103ED00015D0B0F5804F10D116E0D4F89820D9F85D
:103EE000001021F4E0511143C9F80010E4E7B0F5E7
:103EF000004F0ED0B0F5204F0BD001250AE0002175
:103F0000201D09F01FF803E00098022109F0AAF82B
:103F100005464DB12E46207800071ED5D4F8800006
:103F2000B0F5805F0AD00FE0D4F89C20D9F80010DB
:103F300021F460411143C9F80010ECE70098022118
:103F400009F090F800B10126D4F88020DAF80010CA
:103F500021F440511143CAF800102078C00613D54F
:103F6000D4F89400B0F5807F05D10098022109F0C3
:103F700079F800B10126D4F89420D9F8001021F482
:103F800040711143C9F800102068000316D5D4F819
:103F9000A00038B1B0F5803F09D0B0F5003F0BD09C
:103FA00001250AE00021201D08F0CCFF03E0009865
:103FB000022109F057F8054685B12E4620684003D6
:103FC00022D5D4F88400B0F5801F11D0B0F5001FC1
:103FD00013D0B0F5401F15D0012514E0D4F8A0206F
:103FE000D9F8001021F440311143C9F80010E5E779
:103FF000386840F40030386004E00098012109F08E
:1040000031F8054655B12E462068C0031CD5E06C3A
:1040100070B1B0F5803F10D0012514E0D4F88420B1
:10402000DAF8001021F440111143CAF80010EBE750
:10403000386840F40030386004E00221201D08F0A8
:1040400081FF0546CDB12E462068800005D5009839
:10405000022109F007F800B10126206880031BD572
:10406000E06FB8B1B0F5807F10D0B0F5007F11D00F
:10407000B0F5407F0ED001250DE02E48E26C0838E7
:10408000016821F4803111430160DDE7386840F4B4
:1040900000303860F5B32E462068C00207D5226F85
:1040A000D8F8001021F000411143C8F80010206832
:1040B000C00008D5D4F8B420DBF8001021F480410A
:1040C0001143CBF800102068800207D5A26ED8F803
:1040D000001021F080711143C8F8001020684000E2
:1040E0000CD5DBF8001021F40041CBF80010DBF810
:1040F0000010D4F8B8201143CBF800102068002835
:1041000007DA0C48226D0838016821F0405111434C
:10411000016000E014E02068000208D5D4F888208F
:10412000DAF8001021F440011143CAF8001086B1FA
:10413000012003E054440258CFFFFF00BDE8FC9F7C
:10414000E26FDAF8001021F440711143CAF8001050
:10415000A2E70020EDE700002DE9F05F04000F4624
:104160007ED0DFF83882D8F8000000F00F00B842A7
:104170000CD2D8F8001021F00F013943C8F8001014
:10418000D8F8000000F00F00B84269D12078844DC3
:1041900040070AD52069296801F07001884204D9D6
:1041A000296821F070010143296020787C4E361D7A
:1041B00000070AD56069316801F07001884204D9AE
:1041C000316821F07001014331602078C0060AD5C2
:1041D000A069316801F4E061884204D9316821F4B2
:1041E000E061014331602078DFF8B4B180060BF163
:1041F000080B0CD5E1695846DBF8002002F070028C
:10420000914204D9026822F070020A4302602078C9
:1042100080070AD5E068296801F00F01884204D9B7
:10422000296821F00F01014329602078C0073ED0A2
:104230005B49A2682868183920F470601043286030
:104240006068022818D0032819D00968012819D0FD
:10425000490700294ADADFF848A1AAF1080A00E074
:1042600044E0DAF8002022F007020243CAF80020F6
:10427000FFF790F8814612E009688903E9E70968C9
:104280008901E6E7C905E4E7FFF784F8A0EB090137
:1042900041F28830814202D90320BDE8F09F616875
:1042A000DAF8000000F03800B0EBC10FECD1207854
:1042B00080070AD5E068296801F00F01884204D21E
:1042C000296821F00F0101432960D8F80010404609
:1042D00001F00F01B9420BD9016821F00F013943F8
:1042E0000160006800F00F00B84201D00120D4E75F
:1042F000207840070AD52069296801F070018842BA
:1043000004D2296821F07001014329602078000758
:104310000AD56069316801F07001884204D23168C1
:1043200021F07001014331602078C0060AD5A069F0
:10433000316801F4E061884204D2316821F4E0611F
:1043400001433160207880060CD5E1695846DBF8DE
:10435000002002F07002914204D2026822F0700242
:104360000A43026000F06CF80E492A682B68C2F319
:10437000032203F00F038A5CC95C02F01F0201F004
:104380001F01D040084A20FA01F111600749086076
:1043900007480068BDE8F05FFFF738B8002000521A
:1043A00018440258484701080C0000240800002463
:1043B0001400002430B500F043F80B4A0B490C4BB5
:1043C00015681468C5F3032204F00F048A5C095DC4
:1043D00002F01F0201F01F01D040064A20FA01F14D
:1043E00019601060084630BD18440258484701085B
:1043F0000C0000240800002400B5FFF7DBFF05498E
:104400000968054AC1F30211515C01F01F01C8405F
:1044100000BD00001C4402584847010800B5FFF7E2
:10442000C9FF05490968054AC1F30221515C01F041
:104430001F01C84000BD00001C4402584847010845
:10444000454970B545480968434B103B11F03802A7
:1044500008D00111082A03D0102A0BD0182A0BD03B
:10446000084670BD19688906FBD51968C1F3C101FA
:10447000C84070BD3A4870BD3749374D18310C1DE2
:1044800024350A68096826682D6802F0030406F0DE
:104490000102C1F30511C5F3CC0515FB02F200EED4
:1044A000102AB8EE400AE9B32F4ADFED2E0AB7EE24
:1044B000001A6CB1DFED2D1A012C01D0022C43D073
:1044C00002EE101A1068F8EE422A81EEA22A1EE0CF
:1044D0001C68A40611D51B6801EE901A1168C3F37D
:1044E000C103F8EE612AD84001EE900AC1F308003A
:1044F000F8EE611A81EEA22A0BE001EE901ADFEDD0
:104500001C2A00BFF8EE611A106882EEA12AC0F3DF
:10451000080001EE900AF8EE611A40EE201A31EE22
:10452000810A00E015E022EE000A1068C0F3462080
:10453000401C00EE900AF8EE600A80EE201ABCEEF5
:10454000C10A10EE100A70BD01EE901ADFED092AC3
:10455000D8E7002070BD0000104402580090D0033E
:1045600040787D0100000039304402580024744A2C
:104570000024744C20BCBE4B2DE9F05F04007CD0BD
:10458000FF4F2078FE4D1837DFF8F493103DC00739
:1045900048D0D9F80000396800F03800102815D04C
:1045A000182803D101F0030002280FD06068B0F58D
:1045B000803F12D010B1B0F5A02F18D0286820F499
:1045C00080302860286820F4802009E02868800373
:1045D00028D560680028D2D024E0286840F48030D4
:1045E0002860606888B1FEF7D5FE064609E02868B5
:1045F00040F480202860F0E7FEF7CCFE801B6428A2
:104600007ED828688003F7D50CE0FEF7C3FE064687
:1046100005E000BFFEF7BEFE801B6428F0D82868C6
:104620008003F7D4207841F20308D54E0C3E800772
:1046300053D5D9F80000396810F038000ED018288A
:1046400001D188070AD0E068A8B3296821F01901D0
:1046500001432960FEF79EFE82461BE02868400762
:1046600002D5E06800288AD0FEF78EFE40451BD8B0
:104670002069402812D0316800E0CCE021F47C3180
:1046800041EA0030306028E0FEF784FEA0EB0A002B
:104690000228B5D828684007F6D5E5E7306820F449
:1046A0007C3040F40030EDE7207C316821F0FE41A1
:1046B00041EA0060E6E7FFE7286820F00100286093
:1046C000FEF768FE824605E0FEF764FEA0EB0A00F6
:1046D000022895D828684007F6D42078C0065FD510
:1046E000D9F80000DFF898B2396800F03800ABF173
:1046F000040B082812D0182805D101F0030000E0AF
:10470000EAE001280AD0E0690028286838D040F0A3
:1047100080002860FEF73EFE824623E02868C00540
:1047200023D5E069802876D11FE0206A202821D097
:10473000316821F0F84141EA8060306030E000BF2C
:1047400094F82010DBF8002022F07C5242EA01614C
:10475000CBF8001024E000BFFEF71CFEA0EB0A001F
:10476000022896D82868C005F6D5FEF70DFE40450C
:10477000E6D8DAE7306820F0F84040F08040DCE727
:1047800020F080002860FEF705FE064605E000BF29
:10479000FEF700FE801B02289BD82868C005F7D4CE
:1047A0002078000729D57648616964300029804661
:1047B000016811D041F001010160FEF7EBFD0646F2
:1047C00005E000BFFEF7E6FD801B0228C9D8D8F837
:1047D00000008007F6D510E021F001010160FEF72E
:1047E000D9FD064605E000BFFEF7D4FD801B022878
:1047F00072D8D8F800008007F6D42078800623D538
:10480000A0690028286810D040F480502860FEF786
:10481000C1FD064605E02CE1FEF7BCFD801B022829
:104820005AD828688004F7D50EE020F4805028601C
:10483000FEF7B0FD064604E0FEF7ACFD801B022843
:104840004AD828688004F7D4207840074FD5DFF88D
:104850003481D8F8001041F48071C8F80010FEF7D8
:1048600099FD064605E000BFFEF794FD801B642815
:1048700032D8D8F80000C005F6D5414EA0686036A1
:1048800001280AD008B1052813D0306820F00100B3
:104890003060306820F0040002E0306840F0010031
:1048A0003060A06841F2883A90B1FEF773FD80460F
:1048B0000AE0306840F004003060EEE7FEF76AFD81
:1048C000A0EB0801514507D830688007F6D50EE007
:1048D000FEF760FD804607E084E000BFFEF75AFD6A
:1048E000A0EB080151457DD830688007F6D4606A96
:1048F000F0B3DFF88C80D9F8001008F12008C1F37C
:10490000C20103296FD00228286820F08070286037
:1049100003D0FEF73FFD044680E0FEF73BFD064670
:1049200005E000BFFEF736FD801B022873D828681B
:104930008001F7D4E26A40F2F331386854F8283F36
:10494000884340EA021018433860217B4FF4FE0C84
:1049500022894FF0FE47208A4902267D521E401EC2
:10496000A1F5007189B20CEA0040C2F3080200E030
:1049700081E01143761E0143014807EA066203E025
:1049800010440258004802581C3011433B4AC8F8F2
:104990000010016821F00101016011684FF6F876FE
:1049A000236AB14341EAC30111600168A26921F0A1
:1049B0000C01114301600168E26921F00201114319
:1049C0000160016841F480310160016841F4003107
:1049D0000160016841F480210160016841F001013A
:1049E000016001E017E01DE0286840F08070286059
:1049F000FEF7D0FC044604E0FEF7CCFC001B0228C6
:104A000009D828688001F7D535E000BFFEF7C2FC61
:104A1000001B022802D90320BDE8F09F286880010E
:104A2000F4D428E039680128D8F8000021D0A26A1F
:104A300001F0030393421CD1E26AC1F305118A42DB
:104A400017D1216BC0F30802491E8A4211D1616B54
:104A5000C0F34622491E91420BD1A16BC0F306421E
:104A6000491E914205D1E16BC0F30660491E8142A7
:104A700001D00120D0E70020CEE7000034440258E6
:104A800003490A6822F4600202430A60704700008A
:104A900004040058401EB0F1807F10B501D30120FE
:104AA00010BD4FF0E02460610F21601708F038FA64
:104AB0000020A0610721216110BD70477047704739
:104AC000F0B590F83C20012A3BD01F4E012480F81D
:104AD0003C40022280F83D2002681C4D5368B242DF
:104AE000D2F808C001D0AA4203D14F6823F4700362
:104AF0003B430F6823F070031F4357600268B242C4
:104B000013D0B2F1804F10D0114B9A420DD0114BFF
:104B10009A420AD0104B9A4207D0AA4205D00F4BB6
:104B20009A4202D00E4B9A4204D189682CF080033D
:104B300019439160002180F83D4080F83C10084600
:104B4000F0BD0220F0BD0000000001400004014063
:104B50000004004000080040000C00400018004025
:104B60000040014010B5040003D094F83D0010B19E
:104B700007E0012010BD002084F83C00204600F032
:104B800023F8022084F83D002068211D01F03CFE3E
:104B9000012084F8480084F83E0084F83F0084F83F
:104BA000400084F8410084F8420084F8430084F80F
:104BB000440084F8450084F8460084F8470084F8EF
:104BC0003D00002010BD000008B501681D48B1F18E
:104BD000804F11D01C4A91421DD1016841F008015B
:104BE000016000680022114600F0080000903220A9
:104BF000FEF796FC32201FE0016841F001010160E0
:104C000000680022114600F0010000901C20FEF711
:104C100087FC1C2010E00D4A914211D1016841F03F
:104C20004001016000680022114600F04000009041
:104C30002B20FEF775FC2B20BDE80840FEF762BC78
:104C400008BD0000E8440258000C00400018004075
:104C500090F83D10012901D001207047174A022128
:104C600080F83D100168CB6843F00103CB60006819
:104C7000904214D0B0F1804F11D0114988420ED02B
:104C8000104988420BD01049884208D00F49884209
:104C900005D00F49884202D00E49884207D1816869
:104CA0000D4A1140062906D0B1F5803F03D00168B6
:104CB00041F0010101600020704700000000014048
:104CC0000004004000080040000C004000040140C7
:104CD00000180040004001400700010070B5044684
:104CE00090F83C00012814D0394B012584F83C5041
:104CF000022084F83D0022689068184020F47F402C
:104D000090600868702828D010DC10F00F0F03D0D6
:104D10004BE04FF0020070BD4FEA2012072A44D248
:104D2000DFE802F05151515149323A00B0F1101F01
:104D300049D009DCB0F5805F37D0B0F5005F17D0FF
:104D4000B0F5801F31D13EE0A0F5801120393AD076
:104D5000102938D0202928D135E04A682068D1E9C7
:104D6000021301F0B3FD2068816841F0770109E08A
:104D70004A682068D1E9021301F0A8FD2068816823
:104D800041F48041816010E0CA684968206807F0FA
:104D9000CBFE2068502106E0CA684968206807F009
:104DA000D4FE2068602107F0B5FE002084F83D5055
:104DB00084F83C0070BDCA684968206807F0B4FEFA
:104DC00020684021EFE7226801461046EBE700002B
:104DD00088FFCEFF704770B5044600680025016962
:104DE000C943890715D4C168C943890711D4EA1E8C
:104DF000026101212177206880698007204602D066
:104E0000FFF7E8FF04E000F0A7F8204600F0A5F85F
:104E1000257720680169C943490717D4C168C94388
:104E2000490713D402216FF0040202612177206840
:104E3000806910F4407F204602D0FFF7CBFF04E0EA
:104E400000F08AF8204600F088F82577206801698C
:104E5000C943090716D4C168C943090712D40421FC
:104E60006FF00802026121772068C0698007204640
:104E700002D0FFF7AFFF04E000F06EF8204600F02C
:104E80006CF8257720680169C943C90617D4C16841
:104E9000C943C90613D408216FF0100202612177BB
:104EA0002068C06910F4407F204602D0FFF792FFCF
:104EB00004E000F051F8204600F04FF82577206814
:104EC0000169C943C90708D1C168C943C90704D1E9
:104ED000891E0161204600F041F820680169C9433C
:104EE000090609D4C168C943090605D46FF08001D9
:104EF00001612046FFF7E2FD20680169C943C90549
:104F000009D4C168C943090605D46FF480710161F1
:104F10002046FFF7D2FD20680169C943490609D43C
:104F2000C168C943490605D46FF0400101612046BC
:104F300000F028F820680169C94389060BD4C168CC
:104F4000C943890607D46FF0200101612046BDE8FE
:104F50007040FFF7B4BD70BD7047704701680748E7
:104F6000026807489142016801D1491C0160B1F50E
:104F70007A7F01D100210160704700009405002470
:104F800004000024704730B590F88010012918D033
:104F9000012280F880202421C0F8841000222024DF
:104FA00050F8641B0B680D6823F0005325F00105D1
:104FB0000D60026050F8641C0B60046202771046BA
:104FC00030BD022030BD7047704770B5044690F880
:104FD000800001281DD0012284F880202420C4F8FC
:104FE000840020680568026822F0010202602068DF
:104FF000826822F060620A438260204608F0C2F8AC
:105000002268202100201560C4F8841084F88000F4
:1050100070BD022070BD70B5044690F88000012874
:105020001DD0012284F880202420C4F88400206848
:105030000568026822F0010202602068826822F09E
:1050400060420A438260204608F09CF822682021D2
:1050500000201560C4F8841084F8800070BD022020
:1050600070BD7047704790F88010012907D0D0F8C4
:105070008420012180F88010212A02D006E002203D
:10508000704701688A6842F080028A60D0F8881010
:10509000222911D102680821116201680A6842F4CC
:1050A00080720A6001688A6842F001028A600168C1
:1050B0008A6842F040028A60002180F88010084629
:1050C000704770B5044600681026D4F88410D4F8F0
:1050D00088508268120612D5212910D1816821F0EA
:1050E00080018160A06F38B1FBF77AFA20B1A06F20
:1050F000FBF76AFD20281BD0204607F08FFD2068B3
:105100008168490612D5222D10D1816821F0400115
:105110008160E06F38B1FBF763FA20B1E06FFBF715
:1051200053FD202804D0204607F05CFD002070BD10
:10513000C4F88C60032070BD704700002DE9F04179
:1051400003680446002540F60F06D86919689A6876
:10515000304209D186067DD501F0200602F0805745
:105160003E4377D0216F39E1AF4EB04F16400F402C
:1051700037436FD0C70709D0CF0507D501271F6276
:10518000D4F88C3043F00103C4F88C3083070AD57F
:10519000D30708D0276802233B62D4F88C3043F051
:1051A0000403C4F88C3043070AD5D30708D0276816
:1051B00004233B62D4F88C3043F00203C4F88C30F3
:1051C00003070CD501F02003334308D026680823D9
:1051D0003362D4F88C3043F00803C4F88C300305F4
:1051E0000BD54B0109D526684FF400633362D4F820
:1051F0008C3043F02003C4F88C30D4F88C30002B72
:1052000034D0800609D501F0200002F08051084317
:1052100003D0216F09B1204688472168D4F88C005B
:105220008968490602D410F0280F21D0204607F0E3
:10523000D9FC20688168490615D5816821F04001B4
:105240008160E06F78B17A490165E06FFBF77AFB26
:10525000002800E012E009D0E06F016D00E0204678
:10526000BDE8F04108472046FFF766FFBDE8F08142
:105270002046FFF761FFC4F88C50F7E7E76E202661
:10528000012F71D1C7066FD5CF066DD510201862DA
:1052900022689068400669D5E16F664B08689842BD
:1052A00034D0644B1833984230D0624B303398423C
:1052B0002CD0604B4833984228D05E4B60339842E4
:1052C00024D05C4B7833984220D05A4B903398428C
:1052D0001CD0584BA833984218D0574B984215D041
:1052E000554B1833984211D0534B303398420DD060
:1052F000514B4833984209D04F4B6033984205D008
:105300004D4B7833984201D04B4B903340680004AA
:10531000000CABD0B4F85C308342A7D9A4F85E008F
:10532000C869B0F5807F18D0106820F480701060D4
:105330002068816821F0010181602068816821F086
:1053400040018160C4F88860E5662068016821F04A
:1053500010010160E06FFBF743F9B4F85C00B4F8AA
:105360005E10401A81B220E023E0FFE7B4F85C0051
:10537000B4F85E10B4F85E30401A81B2002BC8D089
:105380000029C6D010682D4B20F490701060206862
:10539000826802EA03028260C4F88860E5662567D5
:1053A0002068026822F0100202602046FFF70BFE20
:1053B0005CE7C70209D5570207D54FF48010186281
:1053C0002046BDE8F041FFF74DBE07060AD501F0C3
:1053D000800702F40002174304D0616F00297FF4B4
:1053E0003EAF43E742060CD54A060AD51968204667
:1053F00021F040011960C4F88460656700F0FEFB8D
:1054000034E7020206D54A0004D52046BDE8F04143
:10541000FFF727BEC001CBD50029C9DA2046BDE879
:10542000F041FFF7D1BD0000010000102001000491
:1054300095CC00081000024010040240FEFFFFEF70
:1054400010B5040003D0D4F8840010B107E00120A7
:1054500010BD002084F88000204600F027F82420AA
:10546000C4F884002068016821F001010160204631
:1054700001F070FB0128EBD0A06A10B1204601F0CA
:10548000D5FA2068416821F4904141602068816824
:1054900021F02A0181602068016841F0010101606A
:1054A0002046BDE8104001F025BB00002DE9F04F7B
:1054B000B5B0044614212FA8FAF779FFBC2168463D
:1054C000FAF775FFFF49002520684FF0030AFC4FEB
:1054D0004FF0400B0E154FF0020888424FF00109C3
:1054E0005CD16846CDF800801D95FEF7CBF908B178
:1054F000FBF768F8F2480830016841F400210160C8
:10550000006800F400203490386840F002003860F1
:10551000386808232FAA00F002004FF440772FA923
:10552000CDE9333082E88007E748FDF70FFEE74F0B
:105530003F21E74887E82300C7E903567D613846E5
:10554000BD61FD613D627D62FBF7B8FE08B1FBF70E
:1055500039F8DFF878835946DD4A08F17808E767BB
:105560004046BC631832E0E8022B80E86200C56068
:105570000561456185614046C8F82450FBF79EFEF1
:1055800008B1FBF71FF80022C4F8788034201146D8
:10559000C8F83840FDF7C4FF342076E0CD49884292
:1055A00079D16846CDF800801D95FEF76BF908B1FA
:1055B000FBF708F8C2480830016841F48011016027
:1055C000006800F480103490386840F002003860C1
:1055D000386800F002003490386840F00800386005
:1055E00038680E234FF40052474600F008002FA9F8
:1055F000CDE933302FABB44883E88406FDF7A6FD30
:105600000822B54804232FA9CDE932A22FAA82E8A7
:105610008802FDF79BFDDFF8B4824122AC4908F116
:10562000F0083031404688E82600C0E90356C8F843
:105630001450C8F81850C8F81C50C8F82050C8F8C2
:105640002450FBF73BFE08B1FAF7BCFFA34F4223FF
:10565000C4F87C80C8F8384038469D49C7E90356ED
:105660007D614831BD61FD613D627D6287E80A0868
:10567000FBF724FE08B1FAF7A5FF0022A767352043
:105680001146BC63FDF74CFF3520FDF73BFF35B0FD
:10569000BDE8F08FFFE7924988425ED16846CDF8B9
:1056A00000801D95FEF7EEF808B1FAF78BFF8448ED
:1056B0000830016841F080410160006800F08040DE
:1056C0003490386840F00200386038680B272FAA01
:1056D00000F0020018232FA9CDE9337082E80807F3
:1056E0007948FDF733FD7D4F4F227949A846783739
:1056F000603138463960C7E90125C7E903567D6145
:10570000BD61FD613D627D62FBF7D8FD08B1FAF72E
:1057100059FF724D5023E767F035BC636C4A284649
:10572000C5E90386C5F814807832C5F81880C5F835
:105730001C80C5F82080C5F8248085E80C08FBF79C
:10574000BDFD08B1FAF73EFF0022A56752201146C1
:10575000AC63FDF7E5FE522097E7624988425FD1CE
:10576000CDF8009068461E95FEF78CF808B1FAF760
:1057700029FF53481030016841F0100101600068B2
:1057800000F010003490386840F00100386038684C
:1057900007224FF4C06300F001002FA9CDE93320A8
:1057A0002FAA514882E80807FDF7D0FC4F4F292166
:1057B0004F4887E82300C7E903567D613846BD613D
:1057C000FD613D627D62FBF779FD08B1FAF7FAFEF3
:1057D000DFF818812A23E76708F17808BC634046A0
:1057E000434A1832C0E90356C8F81450C8F8185094
:1057F000C8F81C50C8F8205088E80C08C8F8245095
:10580000FBF75CFD08B1FAF7DDFEC4F878800022F2
:105810000521C8F838402520FDF782FE252034E711
:105820003449884268D10020CDF800801D90684638
:10583000FEF728F808B1FAF7C5FE214808300168DC
:1058400041F400310160006800F4003034903868A1
:1058500040F001003860386800F00100349038688A
:1058600040F00800386038682FAA082100F00800CE
:1058700082E802070725CDE933501B482FA9FDF721
:1058800065FC2FAB3395202213482FA983E804072A
:10589000FDF75CFC154F002515482B21F037303003
:1058A00087E82300C7E903567D613846BD61FD6185
:1058B0003D627D62FBF702FD08B1FAF783FE1CE052
:1058C000E0440258004C0040000402589C0D0024A3
:1058D0001004024000500040000C0258040F002445
:1058E0000078004000100140000002586C100024B5
:1058F000100002400044004024E0DFF8F4812C2333
:10590000E7674046BC637B4AC0E90356C8F81450B9
:10591000C8F81850C8F81C50C8F8205088E80C087F
:10592000C8F82450FBF7CAFC08B1FAF74BFE002276
:10593000C4F8788026201146C8F83840FDF7F0FDFD
:105940002620A2E66C4988426DD16846CDF80080D9
:105950001D95FDF797FF08B1FAF734FE6748016817
:1059600041F480210160006800F4802034903868A0
:1059700040F002003860386800F002003490386867
:1059800040F00400386038684646072700F00400FD
:105990004FF48068CDF8BC8030AACDE93370584808
:1059A0002FA982E84006FDF7D1FB2FAB33974FF4C8
:1059B000006254482FA983E84406FDF7C7FB4C4F0B
:1059C0002D224C4978371831384687E82600C7E938
:1059D00003587D61BD61FD613D627D62FBF76EFC38
:1059E00008B1FAF7EFFD434A2E23414E3032E76704
:1059F000F036BC6311153046C6E903517561B561D7
:105A0000F5613562756286E80C08FBF757FC08B152
:105A1000FAF7D8FD0022A66727201146B463FDF7E8
:105A20007FFD272031E6384988427FF430AECDF83B
:105A3000009068461E95FDF725FF08B1FAF7C2FDF4
:105A40002E480830016841F020010160006800F034
:105A500020003490386840F004003860386807222D
:105A6000C02300F004002FA9CDE933202FAA254838
:105A700082E80807FDF76AFB244F47211D4848309C
:105A800087E82300C7E903567D613846BD61FD61A3
:105A90003D627D62FBF712FC08B1FAF793FDDFF877
:105AA0006C804823E76708F17808BC634046114AD8
:105AB0006032C0E90356C8F81450C8F81850C8F846
:105AC0001C50C8F8205088E80C08C8F82450FBF790
:105AD000F5FB08B1FAF776FD0022C4F8788047207C
